:020000040800F2
:1000000050750020410100086B010008A579000827
:1000100000000000000000000000000000000000E0
:100020000000000000000000000000007DD7000874
:100030000000000000000000FF00000845EB000881
:1000400075010008750100087501000875010008B8
:1000500075010008750100087501000875010008A8
:1000600075010008BD290008F5290008612A00086B
:100070007501000875010008750100087501000888
:100080007501000875010008750100087501000878
:100090007501000875010008750100087501000868
:1000A00075010008750100087501000801F40008D9
:1000B00021F4000841F40008750100080348854652
:1000C00000F074FD004800473937010850750020E2
:1000D000064B19680868203080F30988022080F3F5
:1000E00014883FBCAE4662B600BD0000BC030020D1
:1000F000EFF3108072B6704780F310887047EFF30B
:1001000009800E4B1A6820381060F0C044464D46F6
:1001100056465F46F0C008B572B616F0C7FF62B625
:100120000CBC116808681030F0C8A046A946B24659
:10013000BB4680F309882038F0C81847BC0300206C
:100140000D480E49026800608A4203D00C4880477F
:100150000C4800470C480D4901600D480B490160EF
:100160000C4801688D4640680047FEE7FEE7FEE761
:10017000FEE7FEE7FEE70000F07F0020EFBEADDE09
:1001800021EC0008BD00000818100240010000002A
:100190000000014000D8FF1F30B50B46014600208B
:1001A0002022012409E00D46D5409D4205D31D467D
:1001B0009540491B2546954040191546521E002D75
:1001C000F1DC30BD70B500242546002801DA012499
:1001D0004042002901DA01254942FFF7DDFFAC4228
:1001E00000D04042002C00D0494270BD10B5202AFA
:1001F00004DB0846203AD040002110BD0B46D34016
:10020000D0402024A21A91400843194610BD000096
:1002100000487047CC89010810B50446FFF7F8FF85
:100220000068005DC007C00F10BD014641391929A3
:1002300000D82030704703460B439B0703D009E0EA
:1002400008C9121F08C0042AFAD203E00B78037011
:10025000401C491C521EF9D27047D2B201E0027014
:10026000401C491EFBD270470022F6E710B513462A
:100270000A4604461946FFF7F0FF204610BD421E0D
:100280005378521C002BFBD10B781370491C521C65
:10029000002BF9D1704710B5044605E00B780370C8
:1002A000401C002B00D0491C521EF7D2204610BD26
:1002B000CAB2401E4178401C8A4202D00029F9D1BE
:1002C00000207047421C0178401C0029FBD1801A95
:1002D000704710B5002200E0521C835C8C5CA34286
:1002E00001D1002BF8D1D8B2E1B2401A10BD30B51F
:1002F00004460020034600E05B1C934203D2E05C0E
:10030000CD5C401BF8D030BD10B5044600E0401C69
:100310000378002BFBD100E0401C521E04D30B7865
:10032000491C0370002BF7D100210170204610BD3D
:1003300003460A780270401C491C002AF9D118466D
:10034000704730B505460020034600E05B1C934231
:1003500005D2EC5CC85C201A01D1002CF6D130BD6E
:1003600070B5104D002800D12868002414E00A461A
:1003700002E09E4203D0521C1378002BF9D1DAB26E
:10038000224307D0002B06D0002C04D0002101709E
:10039000401C04E00446401C0678002EE7D128608B
:1003A000204670BDAC030020F7B582B00F46002692
:1003B000029C0FF0D3F80090006801902578641C2F
:1003C000002D05D0FFF724FF0068405DC007F5D180
:1003D0002B2D02D02D2D1CD0641E00980021016011
:1003E00039462046049A00F0FBF80146002F04D05D
:1003F0003868A04201D1029838600098006802284D
:100400000BD00098019A0260700506D5484205B0ED
:10041000F0BD012080020643DFE70846F7E770B52C
:1004200006460FF09BF8046805460A220021304674
:1004300000F07CF92C6070BD70B506460FF08EF8A8
:10044000046805460A220021304600F06FF92C604E
:1004500070BD70B502464A40D50F40004A00ED0716
:1004600040085208002814D0002A12D0C40DD30D21
:1004700041020120C0055202490A520AE41A091831
:1004800012187D34914201D3641C00E04900002C15
:1004900001DA002070BD0023914201D3891A034381
:1004A000400849000028F7D100290AD0914202D122
:1004B0000121C90705E0914201D2012101E001219A
:1004C000C943E005C018401900F068F970BD41004B
:1004D00040020122400AD205090E80187F2901DA64
:1004E00000207047962903DC9622511AC8407047B5
:1004F000963988407047C20FD207400040080BD0A1
:10050000C10D0723DB01C91840020905400A114348
:10051000C208400711437047002001467047CB0FC7
:10052000DB07490010B5490802460A4307D00A0D07
:1005300007240903E401090B121B002A01DC002037
:1005400010BDC900440F0C43C100E018D20580184B
:1005500000F024F910BD00000122D207002800DBC2
:10056000101A002900DB511A814270470122D2077C
:10057000002800DB101A002900DB511A884270475E
:10058000F0B51FB40646002082B005464024019114
:1005900000901BE0019922460F463046FFF726FEE9
:1005A000049A059B801A994110D310461946224699
:1005B00000F00EFB361A8F410197224601200021E0
:1005C000009F00F005FB38184D4100902046641E46
:1005D0000028DFDC019B00982946324607B0F0BDB9
:1005E000F7B582B0029C00272078641C154601975D
:1005F000302802D0002D15D015E020780127641C8A
:10060000782804D0582802D0002D09D00BE0002D06
:1006100001D0102D07D1002710252078641C02E09E
:10062000082500E00A250026009610E00099012721
:1006300069430818020C294680B2714300908E1855
:100640003804864201D3012001902078641C294699
:1006500000F0E1FA0028E9DA0398002805D0002F1D
:1006600001D0641E00E0029C04600198002806D0BE
:100670000EF074FF02210160C81E05B0F0BD0099A4
:1006800030040843F9E700000FB400B589B00CA9A5
:1006900000910B990023CB60204B214A06930792CF
:1006A000042201921F4A02921F4A089202466B4698
:1006B000002000F04EFB09B008BC04B0184770B52C
:1006C00086B006460020C0430190002015460C4627
:1006D0000091029104903246694604A8FFF7D4FFC6
:1006E000024604982118002D05D0002801D00846A4
:1006F00000E020462860049800280DD0002A02DD82
:100700000098884208D0081B019000943246694640
:10071000029404A8FFF7B8FF06B070BDA90F000847
:10072000C90F0008FFFFFF7F19020008F7B5009C02
:100730000F4600262578641C002D05D0FFF768FDC4
:100740000068405DC007F5D12B2D02D02D2D18D0AB
:10075000641E39462046029AFFF742FF002F04D05C
:100760003968A14201D1009939607105022400293C
:100770000BDA4042002803DD0EF0F0FE0460A00713
:10078000FEBD012080020643E3E70028F8DA0EF000
:10079000E5FE04600048FEBDFFFFFF7F002904DA8C
:1007A000401C490001D140084000704770B400244B
:1007B000050C05D11024000402D1002921D01124F8
:1007C000050E01D100020834050F01D10001241DDE
:1007D000850F01D18000A41C002801DB4000641CAF
:1007E000002908D020252E1B0D46F540A14000D041
:1007F00001212943084301061B1B000ADB1D02D50A
:10080000002070BC7047DB05181880180029F8DA42
:10081000401C4900F5D170BC400840007047000002
:10082000F0B507460846584087B0C00F049048000E
:100830000E46590040084908BC1A884105D238467E
:1008400031461E4617460B460246580040081043E4
:100850004CD0300D039040055900400D490D0590D6
:10086000401A0290402872DA18030121000B090592
:100870000843019004980092002805D00199524243
:100880000020884100920190029840210A1A0199A3
:10089000009800F09DF905460C466B4607CB00F02A
:1008A000A7F9C0197141039A0E0D0023D7175640BE
:1008B0001A467A40164344D0049A002A2DD0029A50
:1008C000012A039A15DC1205C01A9141012636054A
:1008D000001C7141D20F059ED2070093019202962F
:1008E0002A46234600F08FFB07B0F0BD384631465C
:1008F000FAE71605224A0F46B218C01AB74101217D
:100900000905001C4F4100187F4111461818794114
:10091000E20F10436D19644113E0E2076D081543BF
:100920006408C2071443039A01261205C01A9141B4
:100930003605001C7141CE07400830434908C018F5
:1009400051412A46234600F051FBCDE7FFE70498CA
:1009500001224000C117121A00238B41049831462E
:10096000C417381AA141EEE730B40124E40763400C
:1009700030BC55E730B40124E407614030BC4FE798
:100980000000E0FFF0B51FB488B00B99099800246F
:1009900048400999C00F490049080991C0070B99BF
:1009A0000090490049080B9109990898A646084308
:1009B0001CD00B990A98084318D0099801244000CC
:1009C000420D4800410D099824050003000B204307
:1009D00009900B980003000B20430B9050181C4902
:1009E0004018002201901446104605E00020014600
:1009F0000DB0F0BD032801DA034600E003239C4656
:100A0000C11A0AAE0AE05F0008ADED5B4F00F75B6C
:100A10007D430027AA187C41491C5B1E6145F2DD1D
:100A2000410004AB5A522104120C0A43240C401C0E
:100A30000828DFDB01980290009970460191009030
:100A4000059B049A0799069800F0DDFAD0E70000AC
:100A50000DFCFFFFF0B50C465C4085B0E40FE407E9
:100A600003944C0000266408590094464908024645
:100A70000296224321D062460A431ED06200570DDF
:100A80004A000E032303550D012402462C49240578
:100A9000781B1B0B360B40182343264361460090FE
:100AA0001C46501AB44103D30098401C009002E049
:100AB000921800985B41002803DA0020014605B037
:100AC000F0BD0020012109050746864611E0644675
:100AD0001D46141BB54106D36546521BB3417446EF
:100AE00007430C43A646CD074008490828439218FF
:100AF0005B4105460D43EAD11046184313D06046CA
:100B0000194650407140084306D06046101AB34160
:100B100006D20122002306E000220123DB0702E0C7
:100B20000122D2435310009874460105381C6141DC
:100B3000029C039D0019694100F058FABFE70000CC
:100B4000FD0300004A0009030123090B1B0519439B
:100B50000A4B10B5520D9A4202DA0020014610BD30
:100B6000064B34339A4203DC9A1AFFF73FFB10BD61
:100B7000034BD21800F02CF810BD0000FF0300005A
:100B8000CDFBFFFF10B5002904DB0124E407404240
:100B90008C412146002B04DB1C460123DB0752421B
:100BA000A341994200D1904210BD0000064C01259E
:100BB000064E05E0E36807CC2B430C3C9847103405
:100BC000B442F7D3FFF77EFA74AE010894AE010881
:100BD00010B5202A04DB0146203A9140002010BDC8
:100BE000914020239C1A0346E3401943904010BDD6
:100BF00010B5202A06DBCB170846203A1041C11752
:100C00000B4306E00B461341D0402024A21A91402A
:100C10000843194610BD3A2800D230382023024636
:100C20009A43412A01D310463738884201D3002025
:100C3000C0437047FFB5087889B01546FF2805D036
:100C4000491C2D2804D00022002407E000240BE0DA
:100C50000122F9E70A235C430419491C0878FF289C
:100C6000F8D1002A00D06442002004902A7801467E
:100C70002D2A01D02B2A0FD16D1C2D2A02D0002243
:100C8000049209E00122FBE700260A2233466D1C8C
:100C900000F00BFA381871412F78FF2FF4D10C9A1D
:100CA000A218069202460A4304D0FF23069A913303
:100CB000DA4205DA002109980A4606C00DB0F0BDF7
:100CC0000024B74AB54D2646079200F02BFA029051
:100CD00006980391002801DA474200E007463905EB
:100CE0000020AF4A001C51410191009012E0F8072A
:100CF00007D022462B4630460799FFF743FE0646AB
:100D0000079122462B4610461946FFF73BFE044644
:100D10000D467F10002FEAD10698019B0028009A0B
:100D20000399029806DAFFF795FE3246079BFFF714
:100D300091FE05E0FFF726FE3246079BFFF722FEF5
:100D4000049A002A02D00122D2075140099A03C214
:100D5000B4E7FFB591B0002009900025ED432E20A7
:100D60009E685C681F460190B9696D1C129888479F
:100D70000090396A88470028F6D10098401C0AD0B4
:100D80000D20C0018443002E12DD00982B2809D0CD
:100D90002D280DD103E00020C04315B0F0BD012087
:100DA00080020443B9696D1C12988847761E009032
:100DB00003A9600501D52D2000E02B206A461073A1
:100DC000491C0CA80F9102900AE0B9696D1C129899
:100DD000884700900120400204431398761E056066
:100DE000002E02DD00983028EFD00199009888424B
:100DF00046D18020044308E00998401E0990012054
:100E0000400204431399681C0860B9696D1C761E82
:100E10001298884700903028EED031E0019988423E
:100E200005D1200603D480200443761E1EE00098DE
:100E30000EF0C4FC002826D001204002044307A97C
:100E40000F980331761E88420BD200980F993038E4
:100E500008700F98401C0F90200607D50998401E77
:100E600003E0200602D40998401C0990A00502D591
:100E70001399681C0860B9696D1C12988847009026
:100E8000002ECBDC59E0002E57DD0098652801D0FC
:100E9000452852D1A00550D5032000028443B969EA
:100EA0006D1C761E129888470090002E0CDD2B28B2
:100EB00004D02D2808D1FF2001300443B9696D1CEE
:100EC00012988847761E0090E00501D52D2100E09C
:100ED0002B21029801700298401C0290019025E09D
:100EE0000120400204430EA902980131761E884277
:100EF0000ED20098029930380006000E087003D117
:100F00000299019881420AD90298401C029006E099
:100F1000E00501D5234801E0224840420990B96923
:100F20006D1C12988847009013980560002E04DD10
:100F300000980EF043FC0028D2D1F9691298884736
:100F40000F99FF200870029903AA087000200A90E8
:100F50000B900CA90AA8099BFFF76CFEA00502D410
:100F60000120C04319E72420044209D0E00713D12F
:100F700038680B9A0A99031D3B60006806C00BE0B5
:100F80000B990A98FFF7CBFA0146E00704D13868BD
:100F9000021D3A60006801602846FEE60000144029
:100FA0000000F03FF1D8FFFF4268002A08D0016836
:100FB0000B78491C002B03D0521E06C01846704700
:100FC0000121C160881E70474268002A0BD0C368A7
:100FD0000168002B07D183688B4204D0491E521C44
:100FE00006C0002070470020C043704710B5002B9A
:100FF00008DA0024401C614192185B411A4301D178
:101000004008400010BDF0B51FB482B005460C008A
:1010100003D008460EF07CFA02E00EF079FA203098
:101020000246009021462846FFF7D2FD049B059A10
:1010300004460F4618431143084314D01846104382
:101040001BD0009840210A1A18460599FFF7CEF8E0
:1010500005460E46009A05990498FFF7B9FD084326
:1010600005D0012004E02046394607B0F0BD00203D
:10107000C11705430E432C43374300990E9863056F
:10108000401A7905E40A00220C43FD0A0A3002D511
:1010900000200146E9E70105101969410C9C0D9DEE
:1010A00000196941FFF7A2FFDFE7F0B51FB486B072
:1010B00000200090019002900698069980B204905A
:1010C0000798090C02040014114307900027089D9B
:1010D000099806913E463C4603900398A9B2020443
:1010E000000C039004982D0C154348430021224620
:1010F000FFF76EFDC719714110340E46402CECDB32
:101100003846029AFFF764FD009A019B8018009010
:10111000594102980191103002904028CCDB009890
:101120000BB0F0BD0EB5054A0292002200921346A4
:101130000192FFF768FF03B000BD00003304000018
:1011400070B58C180578401C6B075B0F01D10378D4
:10115000401C2A1106D10278401C03E006780E706C
:10116000401C491C5B1EF9D12B0705D40023521EDD
:101170000DD40B70491CFAE70378401CCB1A921C63
:1011800003E01D780D70491C5B1C521EF9D5A1426D
:10119000D8D3002070BD0000F3B583B00646002010
:1011A00002900024002500BF18E00B2060433D4A58
:1011B00081180498FFF78DF800280ED1701E4000AA
:1011C0003949085A0121A140084381B2701E4000EC
:1011D000354A1152029805B0F0BD641C0A2CE4DBBC
:1011E00000250AE0A800314A81180498FFF771F839
:1011F000002801D10620EEE76D1C042DF2DB01254D
:101200000BE00B2068432A4A81180498FFF761F825
:10121000002801D10720DEE76D1C264800788542B2
:10122000EFDB25482549086015E024480068006880
:1012300007683846FFF746F801903946019A049846
:10124000FFF77FF8002801D10820C4E71B48006899
:1012500040681A490860194800680028E5D1002450
:101260000EE00B2060430F49085C002807D10B21DA
:1012700061430C4A88180499FFF75AF802E0641C8D
:101280000A2CEEDB00BF701E40000749085A0121FE
:10129000A140084381B2701E4000034A11520298D7
:1012A00099E700005E060020A60A00200C820108D3
:1012B0006F0900208400002054030020F00000206B
:1012C000F0B58DB005460C4600200C90002757481D
:1012D0000078002809D0A100554A505812F01CFB94
:1012E000A100544A505812F017FB042052490855E7
:1012F0004E480078002805D0204603F0C9FB019035
:1013000005F053FE03A805AB04AA06A900902046E9
:1013100003F006FB6846008A079001200890002031
:1013200009900A9007A9069804F0DAF968468089BE
:101330000790002008900220099007A9059804F062
:10134000CFF9E00020183D4940184570611E890022
:10135000EC3149003A4A505A02A902F00BFB06460A
:10136000002E37D16846008907123811A04206D1F5
:101370003807000FA84202D100200DB0F0BD2003B5
:101380002902084380B20290611E8900EC314900B5
:101390002B4A505A6946098902F07EFB611E89007A
:1013A000ED314900264A505A002102F075FB611EBA
:1013B0008900EE314900224A505A002102F06CFBAC
:1013C000611E8900EF3149001D4A505A002102F088
:1013D00063FB29E020032902084381B20291611EC8
:1013E0008900EC314900164A505A6946098902F0D1
:1013F00053FB611E8900ED314900114A505A00210A
:1014000002F04AFB611E8900EE3149000C4A505A35
:10141000002102F041FB611E8900EF314900084ABA
:10142000505A002102F038FB0C98A6E79A000020E1
:101430009C170020B817002086000020FC11002017
:10144000DC140020F8B505460E46012D0FD0022D04
:1014500011D0032D7ED1012146480078401E142270
:101460005043454A801801740CF06EFA7EE0304615
:1014700007F0A8FFF8BD3F480078401E14214843FC
:101480003D494018C06800283BD03A490978491EB8
:1014900014225143384A8918C868FEF713FF0446DE
:1014A0003046FEF70FFF0019871C32490978491EA4
:1014B00014225143304A8918C868394613F038F964
:1014C00001462C480078401E142250432A4A8018B6
:1014D000C16028490978491E14225143264A8918B7
:1014E000C9680919481C3146FEF722FF132121481B
:1014F0000078401E142250431F4A8018C0680155CE
:101500001AE03046FEF7DEFE441C20460EF05CF882
:10151000014618480078401E14225043164A80188D
:10152000C16014490978491E14225143124A89188E
:10153000C8683146FEF7FCFE0E480078401E1421B4
:1015400048430D494018C06800280DD10949097861
:10155000491E00E009E014225143074A881814216B
:10156000FEF782FE0E2085E700E000BF00BF0020EE
:1015700080E700005802002038130020F0B587B043
:1015800004460D4616461F467D200001301AC1B2A2
:101590006846C176447685760776002206A92548F6
:1015A00005F0D4F8002802D0FF2007B0F0BD69464E
:1015B0000E98087168460D99417169460C988871BA
:1015C000002005900E980C2802DD18201A49487357
:1015D0000F98012806D10020694608730C2016498F
:1015E00048730CE00F98022806D140206946087322
:1015F0000C201149487302E018200F49487300225B
:1016000001A90C4805F030F9002801D0FF20CCE7F3
:10161000094A527B1202084B1B791A431146074AAA
:10162000908E02F039FA064A0121024804F0C5FF03
:101630000020BAE76412002098050020DC16002084
:10164000F232000010B50BF01BF803F0CBF901F0FB
:10165000DBFE07F07FFB07F049FA07F0CDFB06F051
:10166000B7F9002803D001F0BDFE07F05DFD06F0DC
:1016700041FA002814D032200CF07EFF07F0D4FC91
:10168000E12040022F498860012406E02D4881684E
:1016900020460DF0EFFE601CC4B2052CF6DD04E020
:1016A00032200CF069FF07F0BFFC06F085FD0DF05D
:1016B000EFFE2548007800280FD10122910323482E
:1016C00004F019F9FF20F5300CF056FF002201213B
:1016D00089031E4804F00FF930E0012291031B48F2
:1016E00004F009F9FF20F5300CF046FF002201213B
:1016F0008903164804F0FFF864200CF03DFF012236
:101700009103124804F0F7F864200CF035FF002232
:10171000012189030D4804F0EEF864200CF02CFF41
:1017200001229103094804F0E6F864200CF024FF3C
:10173000002201218903054804F0DDF80120044955
:10174000087010BD980500208500002000040048A6
:101750009A00002070B5044620460BF0CDF90546EE
:10176000204618300BF03EF9054313480088012845
:1017700009D140026063A0680001800A401C616BCF
:101780004843206316E020898004000D401C20633C
:10179000217B4907490F891C01228A40206B504355
:1017A000206360790109012088406063616B206BD0
:1017B00048432063284670BD5003002000B585B023
:1017C0000220FF2300220D21009001A80BF030FD24
:1017D000029901980491039001200BF09BFCFF20DB
:1017E0000BF002FD6846007B002805D16846407B6F
:1017F000002801D105B000BD0120FBE710B512E0C3
:10180000012291030C4804F076F8FF20F53012F025
:1018100057F8002201218903074804F06CF8FF20E3
:10182000F53003F07CFE00F009F80028E8D00BF05A
:1018300083FC0BF077FB10BD0004004808B50120C5
:1018400000900121044804F049F8002801D000204C
:1018500000906846007808BD00040048FFB587B0D6
:101860000746144600250120069000260020FF238D
:1018700022461021009002A80BF0DAFC039902988E
:101880000591049001200BF045FCFF200BF0ACFC0F
:101890006846007C002800D04AE020460DF094FE07
:1018A0000646002E00D143E02146FF223046FEF7D7
:1018B000D4FC36E0254A1288012A01D1224600E0F4
:1018C00001221146089A5019FEF766FC019000208B
:1018D000FF230090112102A8019A0BF0A9FC0399A3
:1018E0000298059104906846007C002800D01FE013
:1018F000FE200BF01BFD00280CD179192246304642
:101900000BF07CFC2D19FF200BF06EFCFF200BF080
:101910006BFC00E00CE001200BF0FCFBFF200BF067
:1019200063FC0A98411E0A910028C3D1069000BFAB
:1019300001200BF0EFFBFF200BF056FC002E02D035
:1019400030460DF00FFE06980BB0F0BD500300209E
:10195000FFB587B0074614460026012006900025F3
:101960000020FF2322461021009002A80BF060FC0B
:10197000039902980591049001200BF0CBFBFF2006
:101980000BF032FC6846007C002800D04CE020467A
:101990000DF01AFE0546002D00D145E03DE0294A34
:1019A0001288012A01D1224600E001221146089A3C
:1019B0009019FEF7F1FB01900020FF230090182101
:1019C00002A8019A0BF034FC039902980591049047
:1019D0006846007C002800D026E0FF200BF004FCC5
:1019E000FF200BF001FCFE200BF0FEFBB819224695
:1019F00029460BF003FC3619FF200BF0F5FBFF2006
:101A00000BF0F2FB0BF066FA052800D00CE0012089
:101A10000BF080FBFF200BF0E7FB0A98411E0A91B8
:101A20000028BCD1069000BF002D02D028460DF042
:101A300099FD01200BF06EFBFF200BF0D5FB069803
:101A40000BB0F0BD50030020FFB583B00D461C461F
:101A50000020029000270026FF2D21DA012718E040
:101A6000781E40004349085A2841C007C00F00288B
:101A70000DD0701CC6B2A019401C2D2804DAA01984
:101A8000401E3D490F5402E0692007B0F0BD781CAC
:101A9000C7B23A4800788742E2DDA01936490E54B1
:101AA000FF2D0BD1601C2D2808DA35480078401C2A
:101AB000C0B2334908703049085518E0FF2D01D1F4
:101AC0006920E2E7FF2D0EDAA019801C2D280ADA22
:101AD0002B480078401CC1B229480170A019401C55
:101AE000254A115403E0FF2D01DA6920CDE7FF2DCF
:101AF00003D1A01DC0B2029004E0701C2018801D0C
:101B0000C0B20290039802F0DBFB0120019027E0B5
:101B10001C480078401E41001B48415A0198401E55
:101B20000141C807C00F002816D0FF2D0AD1029826
:101B3000401F80B20090FF22059B039901980CF092
:101B400005F809E00298401F80B20090FE22059B34
:101B5000039901980BF0FAFF0198401CC0B2019064
:101B600001980528D4DD611C0348FEF77DFB0020A9
:101B70008BE70000A60A0020D20B00208400002082
:101B800098000020850000202C060020F0B585B0CC
:101B900007460C460020039000BF00BF00BF601E38
:101BA0002A490D5C601E322148432949401840787B
:101BB0000290601E32214843254940188078010276
:101BC000601E32225043224A8018C078081880B222
:101BD00001906A1F601E322358431D4BC018011D1F
:101BE0001C48FEF728FB029802F06AFB012624E05D
:101BF00019480078401E40001849085A711E0841D3
:101C0000C007C00F002816D0FF2F09D1681F80B26F
:101C10000090FF223046019B02990BF097FF0AE0EB
:101C2000FE2F08D1681F80B20090FE223046019B33
:101C300002990BF08BFF701CC6B2052ED8DD691F10
:101C40000448FEF711FB039805B0F0BD8C0000209E
:101C5000D80A0020D20B0020850000202C0600208E
:101C600070B586B000250026012455E2E00020185A
:101C7000FE4940184078002876D0FD4800780028BA
:101C800003D1E1006118F94A505402A804AB03AA39
:101C900005A90090204602F043FE00226846818993
:101CA000059803F028FE0A200CF03EFC68460189E6
:101CB000049803F013FE00280ED1012268468189A2
:101CC000059803F018FE0A200CF02EFC68460189E6
:101CD000049803F003FE05460022684681890598B2
:101CE00003F009FEE0002018E04940184078012880
:101CF00006D002280CD0032812D0042820D117E0E7
:101D0000012D01D1042602E0002D00D1032618E0A8
:101D1000012D01D1042602E0002D00D1032610E0A0
:101D2000012D01D1022602E0002D00D1012608E09C
:101D3000012D01D1012602E0002D00D1022600E094
:101D400000BF00BF042E01D0022E12D1A000C9494D
:101D50000858C949884208D2A000C6490858401C02
:101D6000A100C44A505004E0D4E10020A100C14ABF
:101D70005050032E01D0012E2CD1A000BF4908588D
:101D8000BD49884207D2A000BC490858401CA100A8
:101D9000BA4A505003E00020A100B84A5050B84859
:101DA000007802280BD1B748005DB74949798842CD
:101DB00005DCB448005D401CB24908550AE0B14852
:101DC000005DB1494979884204DD0020AC490870C2
:101DD000AC490855A000A7490858AB490988884272
:101DE00061D3A000A3490858A749098888420BD1AC
:101DF0000720E10061189D4A5054A0009D490858F1
:101E0000401CA1009B4A5050A0009C4908589E4984
:101E10000988884203D90020A100984A5050A000A8
:101E20009449085898494988884225D9A000914981
:101E30000858FF21F53188421ED2914800780028C9
:101E400003D101208E4908702DE08D4800780228CA
:101E500029D18C48005D8C490979884223DD894865
:101E6000005D8949497988421DDA03208449087058
:101E700000208449085516E0A0007E490858FF213B
:101E8000F53188420FD3A0007A4908587A49884230
:101E900009D27B480078002802D0002078490870D9
:101EA000204600F043F9A000744908587649098893
:101EB000884255D3A000714908587349098888425F
:101EC0000BD10820E1006118684A5054A0006B490A
:101ED0000858401CA100694A5050A00065490858A4
:101EE00069490988884203D90020A100614A5050FD
:101EF000A0006249085864494988884220D9A00056
:101F00005E490858FF21F531884219D25C480078B3
:101F1000012808D10520E1006118544A50540220DC
:101F2000574908701CE056480078032818D106204D
:101F3000E10061184D4A50540020514908700FE0EB
:101F4000A0004E490858FF21F531884208D3A0006F
:101F50004A4908584849884202D2204600F020F9F0
:101F6000E00020184149085C401F03000DF0E7FA2B
:101F70000A182C060F40556A91A6BBD020460EF0D9
:101F8000B5FA0020E1006118384A5054C1E02046FB
:101F90000EF0AEFA0020E1006118344A5054B8E067
:101FA0003348007800280ED1E00020182F4940184F
:101FB000007AC007C00F002805D001202C49087006
:101FC00020460EF091FAA4E02948007800280ED1AE
:101FD000E000201825494018007A02210840002816
:101FE00005D001202249087020460EF07EFA90E0CC
:101FF0001F48007800280FD1E00020181B49401826
:10200000007A04210840002806D0012018490870F1
:10201000012120460EF06BFA7BE01548007800287D
:102020000FD1E000201811494018007A082108401B
:10203000002806D001200E490870022120460EF02B
:1020400056FA66E00A480078002821D1E0002018FE
:1020500006494018007A10210840002818D00120B5
:10206000034908700321204610E00000FC11002005
:10207000B000002034120020FFFF00004C120020AE
:10208000E7000020A9000020980500200EF02FFA9C
:102090003FE02448007800280FD1E00020182249B2
:1020A0004018007A20210840002806D001201D4950
:1020B0000870012120460EF01CFA2AE01948007829
:1020C00000280FD1E000201817494018007A40215D
:1020D0000840002806D0012012490870022120463D
:1020E0000EF007FA15E00F48007800280FD1E00045
:1020F00020180D494018007A80210840002806D099
:10210000012008490870032120460EF0F2F900E092
:1021100000BF00BF601CC4B2052C00DCA6E506B001
:1021200070BD0000B0000020FC110020F0B5014699
:102130000020CD004D19184EAD19AA78CD004D19CB
:10214000AD19EB78CD004D19AD192C797D25ED0039
:102150006A436B436C438D00104E7559954205D10F
:102160000925CE008E190C4FBD5514E08D000B4E85
:1021700075599D4205D10A25CE008E19064FBD55D1
:1021800009E08D00054E7559A54204D10A25CE00FF
:102190008E19014FBD55F0BDFC11002034120020F6
:1021A000F0B501460020CD004D19184EAD196A79E1
:1021B000CD004D19AD19AB79CD004D19AD19EC79A4
:1021C0007D25ED006A436B436C438D00104E7559BD
:1021D000954205D10C25CE008E190C4FBD5514E04B
:1021E0008D000B4E75599D4205D10D25CE008E19DF
:1021F000064FBD5509E08D00054E7559A54204D125
:102200000D25CE008E19014FBD55F0BDFC110020EB
:102210004C12002000B501460C204843744A801837
:10222000407803000DF08BF90BDF075308546A82E6
:1022300099B2C9B3DF00D7E00C2048436C4A80183C
:102240008068C20080186B4A105C6B4A127890421A
:1022500017D00C204843664A80188068C200801856
:10226000644A105C00280CD00C204843604A801857
:102270008068C20080185F4A105C5F4A10700120BD
:1022800000BD0C2048435A4A80188068C20080185C
:10229000584A105C584A1278904217D00C20484394
:1022A000534A80188068C2008018524A105C002887
:1022B0000CD10C2048434E4A80188068C200801818
:1022C0004C4A105C4C4A10700020D9E78CE08BE03F
:1022D0000C204843464A8018806800788A00474BA3
:1022E0009A5C904209D00C204843414A801880688B
:1022F00000788A0098540120C2E775E00C2048431A
:102300003B4A80188268002010568A003B4B9A5C3A
:1023100052B2904209D00C204843354A8018806858
:1023200000788A0098540120AAE75DE00C20484319
:102330002F4A8018806800888A00304B9A5A92B2DF
:10234000904209D00C204843294A801880680088B0
:102350008A009852012093E746E00C204843244A23
:1023600080188068008800B28A00244B9A5A12B202
:1023700090420AD00C2048431D4A8018806800888B
:1023800000B28A00985201207AE72DE000BF0C20AD
:102390004843174A8018806800688A00174B9A588B
:1023A000904209D00C204843114A80188068006888
:1023B0008A009850012063E716E00C2048430C4A3D
:1023C0008018806800688A000C4B9A58904209D0A7
:1023D0000C204843064A8018806800688A0098509C
:1023E00001204DE700E000BF00BF002048E70000EB
:1023F000941B0020FC110020B8020020FC1C0020CF
:10240000F8B50446142060434349085C012806D00F
:10241000022817D0032816D0042879D177E0142099
:1024200060433D4940188578142060434018C078C7
:10243000E9006918394A515C884201D10120F8BD90
:102440000020FCE765E01420604333494018C07861
:10245000401E0C2148433249085806681420604346
:102460002D494018C28869460A8000894880142096
:10247000604329494018407803000DF060F8074593
:10248000050D15222A37450030460099FEF764F8FD
:1024900001D10120D3E738E030460099FEF766F815
:1024A00001D20120CBE730E030460099FEF754F826
:1024B00006D200213046FEF74FF801D00120BEE7DA
:1024C00023E030460099FEF751F801D80120B6E725
:1024D0001BE030460099FEF73FF806D80021304651
:1024E000FEF73AF801D00120A9E70EE03046009946
:1024F000FEF732F807D000213046FEF72DF802D063
:1025000001209CE704E000E000BF00BF01E000E024
:1025100000BF00BF002092E738130020FC1100200C
:102520009802002070B5002532211048FDF79CFE6E
:10253000012415E0601E40000C49085A002809D00B
:10254000621E52000B46995A621C5200084B985A60
:1025500001F0A2FAA01C1C2800DB0A25601CC4B2F2
:10256000044800788442E5DD284670BDF20800206A
:10257000DC1400208400002010B506490648FDF751
:1025800073FE0120054908700020054908700BF012
:10259000DBF910BD26020000CC06002084000020DC
:1025A00085000020FFB587B000240025002700200B
:1025B00005900490039000BF25E06001E8494018B1
:1025C000407900280DD0E7480078012809D1600142
:1025D0004018437960010A58E3A1E5480CF084FFF4
:1025E00006E06001DE490A58E2A1E1480CF07CFFF8
:1025F000DF480799FDF76DFE002802D102200BB0DD
:10260000F0BD601CC4B20A2CD7DB0898012802D0A8
:102610000898022816D10A98012805D00A9802289D
:1026200002D00A9803280DD11098002805D01098E0
:10263000012802D01098022804D1CF490998FDF74B
:1026400095FF01D20320DAE7002483E16001C44949
:10265000085800287ED1C348007801284AD15F215C
:102660000798FDF725FE074609E00798381A401C31
:10267000C0B203905F21781CFDF71AFE0746002FB9
:10268000F3D10398002823D00399079847183846B8
:10269000FDF718FEC0B2059016E0387830280CDB44
:1026A0003878392809DC387830380599491EB34A1A
:1026B000515C48434019C5B201E0002507E07F1C8A
:1026C0000598401EC0B2059038780028E5D105E095
:1026D000002500206101A24A89184871002D06D00A
:1026E0000120049060019E494018457102E00020DD
:1026F00003900490A2A3A4A19D48079A0CF0F4FEB5
:1027000007229B49A2480FF043FA064695480078F5
:10271000002803D1082E01D1022070E7002E03D03B
:10272000082E01D004206AE78E480078012848D19D
:10273000082E46D1002500BF19218D48FDF794FDD4
:10274000049800280CD1681CC5B28DA02B460090BF
:1027500090A100E0FCE08648079A0CF0C5FE17E067
:102760000398421E82480799FDF795FD002D05D17B
:10277000042283A17E48FDF7C7FD07E080A02B4619
:102780007B4A84A1009010460CF0AEFE681CC5B2D6
:10279000072277497E480FF0FBF90646082E01D143
:1027A000FF2DC9DBFF2D03D1082E01D1022026E722
:1027B000002E01D0042022E70498012801D1681ED0
:1027C000C5B268480078012816D10398002813D0B4
:1027D00003980CF0F9FE6101614A505061015058B4
:1027E0000399FDF741FD03994A1E61015C4B58585E
:1027F0005F49FDF750FD18E00798FDF763FDC0B293
:1028000005900598401C0CF0DFFE6101544A5050C1
:10281000610150580599491CFDF726FD6101504A98
:102820005058059A0799FDF736FD60014C4940184C
:10283000057161014A4A89180898887161018918EF
:1028400009988860610189180A98087361018918DC
:1028500010984873610189181198086164200CF080
:10286000B3FE029064210298FDF7FEFC4B480088FD
:10287000062148434A4940180521012300220091BE
:102880000190484902980CF02FFE0298FDF71AFDBE
:10289000454B024601903E4802990FF06FFC0646F8
:1028A00042480078002818D002F09CF802F0D6F8D0
:1028B000019001F07FFF009002463D49019B029884
:1028C0000CF012FE0298FDF7FDFC374B024601901A
:1028D0002F4802990FF052FC06460898012816D19D
:1028E0000998FDF708FE02460B4601910090314918
:1028F00002980CF0F9FD0298FDF7E4FC2A4B024621
:102900000190234802990FF039FC06460DE0089823
:1029100002280AD12848FDF7D5FC234B0246264958
:1029200001901B480FF02AFC06461198FDF7CAFCDF
:102930001D4B02460190164811990FF01FFC0646E8
:1029400013480EF055FF02980CF00CFE002056E6DE
:10295000601CC4B20A2C00DA78E605204FE60000BD
:10296000541A0020B902002025735F25640000007E
:10297000742000202573000000007A44F0830108D1
:102980002E545854000000002573257300000000E9
:10299000E01F002025735F256425730034000020AC
:1029A000A0810108F3830108A8020020BA020020D8
:1029B000498401081B8401083684010810B50A48BF
:1029C00002F0B8F809480068002804D008480068F8
:1029D000401C0749086006480068044909688842A5
:1029E00001D30BF09DFF10BD882100203C03002087
:1029F0003003002010B51448006820210840400929
:102A0000002803D0114802F095F81BE01048006838
:102A1000012149020840400A002813D00D4802F065
:102A200089F80D480068002804D00C480068401C54
:102A30000A4908600948006807490968884201D3C3
:102A40000BF0A4FF10BD0000000402405021002044
:102A500000000240C0210020400300203403002079
:102A600010B51A480068012149040840400C0028AC
:102A700003D0174802F05EF827E0144800680121EF
:102A800049050840400D002803D0124802F052F8D2
:102A90001BE011480068012149020840400A002853
:102AA00013D00E4802F046F80D480068002804D004
:102AB0000C480068401C0B4908600A480068084937
:102AC0000968884201D30BF097FF10BD0000024057
:102AD000E02000201821002000040240F8210020FE
:102AE000440300203803002010B504686360446884
:102AF000102C04D10468A2600468E16003E004685B
:102B0000A1600468E26010BD02460020704700002A
:102B1000F8B50646002701F083FD05468DA0007834
:102B200028708D4802788DA193480CF0DDFC924905
:102B30002846FDF7A4FB9148027891A18E480CF03D
:102B4000D3FC8D492846FDF79AFB0520012300227E
:102B500092A1009088480CF0C7FC87492846FDF7F1
:102B60008EFB96A298A184480CF0BEFC82492846B0
:102B7000FDF785FB9AA29DA17F480CF0B5FC7E492C
:102B80002846FDF77CFBA0A17B480CF0ADFC7A4900
:102B90002846FDF774FB012432E022469FA17648C7
:102BA0000CF0A2FC74492846FDF769FB9D48005DC6
:102BB00003000CF0C4FC0504090E13181D009AA1B3
:102BC0006D480CF091FC14E099A16B480CF08CFC62
:102BD0000FE09DA168480CF087FC0AE09DA16648C3
:102BE0000CF082FC05E0A2A163480CF07DFC00E043
:102BF00000BF00BF60492846FDF741FB601CC4B21E
:102C0000052CCADDA2A15C480CF06EFC5A4928468E
:102C1000FDF735FBA64800684068002804D1A5A14F
:102C200055480CF061FC0FE0AA49086801F04CFE21
:102C300004469F49486A01F047FE23460246A6A182
:102C400000904D480CF050FC4B492846FDF717FB0F
:102C5000AE4800684068002804D1ADA146480CF099
:102C600043FC0FE09B49486801F02EFE0446A7494B
:102C7000486A01F029FE23460246ADA100903E4875
:102C80000CF032FC3C492846FDF7F9FAB5480068DB
:102C90004068002804D1B4A137480CF025FC0FE0AF
:102CA0008C49886801F010FE0446AE49486A01F07C
:102CB0000BFE23460246B4A100902F480CF014FCF2
:102CC0002D492846FDF7DBFA53A12846FDF7D7FA30
:102CD000BAA12846FDF7D3FA2846FDF7F3FA87B2E2
:102CE000012417E01C480078401E4000BB49085AE8
:102CF000611E0122D2030A411040002808D022465A
:102D0000B7A11D480CF0F0FB1B492846FDF7B7FAA8
:102D1000601CC4B2052CE5DD2846FDF7D3FAB842A5
:102D200003D1B1A12846FDF7AAFA3BA12846FDF739
:102D3000A6FA002E0CD02846FDF7C4FA84B2002073
:102D4000C0433223224629460090304613F04CF906
:102D5000F8BD000000000000850000200A0D2A2AAE
:102D60002A204D6F64756C6520256420537461744E
:102D70007573202A2A2A0A0048050020990000209D
:102D80000A0D436F6E6E6563746564207669612019
:102D9000706F72743A205025640A0D000A0D46695E
:102DA000726D776172652076657273696F6E3A2015
:102DB00025642E25642E2564000000004A756E20CF
:102DC00031302032303139000A0D4669726D776139
:102DD000726520646174653A20202020257300000C
:102DE00031343A30323A3433000000000A0D46697B
:102DF000726D776172652074696D653A20202020BC
:102E000025730A0D000000000A0D506F72747320C4
:102E10005374617475733A0A0A0D00005025643AC0
:102E20002000000086000020467265650A0D000043
:102E3000526563656976696E67206D657373616756
:102E400065730A0D0000000053747265616D696E50
:102E5000670A0D00526563656976696E6720757350
:102E6000657220636F6D6D616E64730A0D00000002
:102E7000436F6E6E656374656420746F20612062B9
:102E80007574746F6E2F7377697463680A0D000030
:102E90000A0D506F72742D746F2D706F7274204410
:102EA0004D4173205374617475733A0A0D0000002C
:102EB000882100200A0D506F72742D746F2D706F71
:102EC000727420444D41203120697320667265651B
:102ED00000000000302200200A0D506F72742D7423
:102EE0006F2D706F727420444D4120312069732022
:102EF00073747265616D696E672066726F6D2050C4
:102F0000256420746F20502564000000C02100203B
:102F10000A0D506F72742D746F2D706F727420448F
:102F20004D41203220697320667265650000000003
:102F30000A0D506F72742D746F2D706F727420446F
:102F40004D4120322069732073747265616D696E22
:102F5000672066726F6D2050256420746F205025A5
:102F600064000000F82100200A0D506F72742D7467
:102F70006F2D706F727420444D412033206973208F
:102F800066726565000000000A0D506F72742D7442
:102F90006F2D706F727420444D412033206973206F
:102FA00073747265616D696E672066726F6D205013
:102FB000256420746F205025640000000A0D5468B9
:102FC00065736520706F727473206172652072651D
:102FD0007665727365643A2000000000F2080020F4
:102FE00050256420000000004E6F6E650000000058
:102FF000F8B5064627A12E480CF076FA2C48FDF7C6
:1030000061F984B20020C04332232246284900904F
:10301000304612F0E9FF012425E001251FE0601E83
:1030200040002449085A691E0122D2030A41104077
:10303000002812D02B4622461FA11D480CF054FA3E
:103040001B48FDF73FF987B20020C04332233A46C0
:1030500017490090304612F0C7FF681CC5B20A2D10
:10306000DDDD601CC4B2194800788442D5DD18A1AA
:103070000F480CF039FA0E48FDF724F984B200200D
:10308000C043322322460A490090304612F0ACFF7A
:10309000F8BD00000A0D546865736520706F727486
:1030A00073206172652072657665727365643A009B
:1030B00048050020F20800200A0D4D6F64756C650C
:1030C000202564203A205025640000008400002060
:1030D0000A0A0D416C6C206F7468657220706F7203
:1030E000747320617265206E6F726D616C0A0D00E1
:1030F000F8B5064658A15D480CF0F6F95B48FDF7B7
:10310000E1F884B20020C0433223224657490090A0
:10311000304612F069FF012413E0224654A15348BF
:103120000CF0E2F95148FDF7CDF885B20020C0431C
:1031300032232A464D490090304612F055FF601C5C
:10314000C4B2052CE9DD0020C043322303224AA18A
:103150000090304612F048FF00246EE0621C47A148
:1031600042480CF0C1F94148FDF7ACF885B20020A7
:10317000C04332232A463D490090304612F034FFC6
:1031800016206043404A105A062250433F4A811895
:1031900005223648FDF77FF80020C0433223052280
:1031A00032490090304612F01FFF0020C043322306
:1031B00001222DA10090304612F016FF01252FE0CC
:1031C00016206043304940186900405A002805D154
:1031D00000222FA125480CF087F912E01620604349
:1031E000294940186900405C43075B0F1620604383
:1031F000254940186900405AC21026A11B480CF00E
:1032000073F91A48FDF75EF887B20020C0433223F5
:103210003A4616490090304612F0E6FE681CC5B2E8
:10322000052DCDDD0020C043322302221BA10090DA
:10323000304612F0D9FE601CC4B2194800788442AE
:103240008CDB0020C0433223012216A100903046BF
:1032500012F0CAFEF8BD00000A0D284D6F64756CAF
:10326000653A506F72742909090000004805002072
:1032700050256409000000000A0A0D004D6F6475B6
:103280006C652025643A0900CC060020A081010865
:103290002564090025643A25640900000A0D000030
:1032A000840000200A00000003460621062214487C
:1032B000018814480288002B15D0012B1DD1002A4B
:1032C00006D11148814201D1002070470220FCE75D
:1032D000002906D10C48824201D10220F5E70020E6
:1032E000F3E7AB20F1E7002901D10020EDE7002A48
:1032F00001D10220E9E7AB20E7E70020E5E7000085
:1033000000E0010800F00108EEEE000010B5002416
:1033100002F0D0F92C4800F059FF2C4800F09CFF37
:103320000446002C03D02A48C06980B210BD294849
:1033300000F04CFF254800F08FFF0446002C03D01E
:103340002348C06980B2F1E723480069022188431D
:1033500021490861002213461B49012002F04CF963
:103360001A4800F079FF0446002C03D01848C069C1
:1033700080B2DBE718480069400840001649086140
:10338000164800F023FF114800F066FF0446002CA9
:1033900003D00F48C06980B2C8E7114800F016FF9B
:1033A0000A4800F059FF0446002C03D00848C069C1
:1033B00080B2BBE708480069400840000649086140
:1033C00002F010F92046B1E700E0010850C3000008
:1033D0002805002000E801080020024000F0010854
:1033E00000F8010810B50648006B0649884206D06F
:1033F000FFF78CFF002802D102480149086310BD85
:10340000C07F0020ADDEEFBEFEB50620029006268E
:103410000025002001900027401E0090012402F0AA
:1034200049F9012003E04200EC4B9852401CFF2177
:1034300037318842F7DDEA4800880290E94806887B
:103440000298002872D0E8494018002872D0E74955
:10345000401800286CD1002E20D1E14800F0B6FEC3
:10346000E34800F0F9FE0446002C03D0E148C069AF
:1034700080B2FEBDE04800F0A9FEDD4800F0ECFEA1
:103480000446002C03D0DB48C06980B2F1E7DB487A
:10349000006902218843D94908614AE0D248404284
:1034A000864236D1CE4800F091FED14800F0D4FEDD
:1034B0000446002C03D0CF48C06980B2D9E7CE487B
:1034C00000F084FECA4800F0C7FE0446002C03D07A
:1034D000C848C06980B2CCE7C84800690221884367
:1034E000C649086100221346BE49012002F084F853
:1034F000BF4800F0B1FE0446002C03D0BD48C069AF
:1035000080B2B6E7BD48006940084000BB49086189
:103510000FE0FFF7FBFE0446B54800F09DFE0446B1
:10352000002C06D0B348C06980B2A2E7B0E001E049
:1035300043E14EE1002E63D1002526E0A848C08873
:103540006900A64A515A884201D128B200900098D9
:10355000854218D06900A14A505AA94900F00AFAD8
:103560000746012F0FD069009C4A505AA449098888
:1035700000F032FA01909E4800F06EFE0446002CE6
:1035800001D0019875E7681C85B2FF20373085426D
:10359000D4DB002213469249012002F02DF8944812
:1035A00000F05AFE0446002C03D09248C06980B255
:1035B0005FE79248006940084000904908618948E7
:1035C00000F004FE8A4800F047FE0446002C03D0B9
:1035D0008848C06980B24CE78A4800F0F7FD84480B
:1035E00000F03AFE0446002C03D08248C06980B245
:1035F0003FE782480069022188438049086146E02C
:103600008148864236D1774800F0E0FD784800F0E6
:1036100023FE0446002C03D07648C06980B228E718
:10362000784800F0D3FD724800F016FE0446002CE6
:1036300003D07048C06980B21BE77048006902215E
:1036400088436E490861002213466549012001F054
:10365000D3FF674800F000FE0446002C03D0654805
:10366000C06980B205E765480069400840006349C9
:1036700008610CE0FFF74AFE04465D4800F0ECFDEF
:103680000446002C03D05B48C06980B2F1E6A0E09C
:10369000002E0AD1FFF73AFE0446554800F0DCFD43
:1036A0000446002C24D02046E3E65748864220D129
:1036B0004C4800F08BFD4E4800F0CEFD0446002C37
:1036C00003D04C48C06980B2D3E64E4800F07EFD7E
:1036D000474800F0C1FD0446002C03D04548C069AE
:1036E00080B2C6E645480069022188434349086123
:1036F00062E0002526E03B48C0886900374A515AFD
:10370000884201D128B200900098854218D0690003
:10371000324A505A3A4900F02DF90746012F0FD08E
:1037200069002E4A505A3649098800F055F901902F
:103730002F4800F091FD0446002C01D0019898E636
:10374000681C85B2FF2037308542D4DB0022134647
:103750002449012001F050FF254800F07DFD04467A
:10376000002C03D02348C06980B282E62348006958
:103770004008400021490861194800F027FD1C4815
:1037800000F06AFD0446002C03D01A48C06980B2DC
:103790006FE6194800F01AFD154800F05DFD04467B
:1037A000002C03D01348C06980B262E61348006958
:1037B00002218843114908610BE0FFF7A7FD044689
:1037C0000B4800F049FD0446002C01D0204650E68D
:1037D00000BF00BF01F006FF00204AE6DC14002015
:1037E00000E0010800F001081211FFFFEFEEFFFFFB
:1037F00050C300002805002000E801080020024016
:103800007002002000F80108FFFF0000F3B585B04A
:103810000746002400200490039002900025002613
:10382000019001F047FF0020FFF73EFD0290029853
:10383000022804D147480490474803900AE00298C0
:10384000002804D1444804904248039002E0AB2091
:1038500007B0F0BD414A00230120049901F0CCFEDD
:103860003F4800F0F9FC0446002C03D03D48C069F5
:1038700080B2EDE73C480069400840003A490861E1
:103880003846069900F0A8F80646002E01D03046CA
:10389000DEE700251CE068003449085AB84215D01C
:1038A0006900324A505A324900F064F80190019898
:1038B00001280BD069002D4A505A2D49098800F083
:1038C0008BF80646002E01D03046C1E7681C85B251
:1038D000FF2037308542DEDB039800F077FC20487C
:1038E00000F0BAFC0446002C03D01E48C06980B228
:1038F000AEE70121C9020398401800F067FC1848A0
:1039000000F0AAFC0446002C03D01648C06980B21F
:103910009EE7154800690221884313490861002287
:1039200013460120049901F067FE0D4800F094FC55
:103930000446002C03D00B48C06980B288E70A48CF
:103940000069400840000849086101F04BFE20462C
:103950007EE7000000E0010800F00108EEEE000044
:1039600050C300002805002000200240DC14002085
:1039700070020020FEB506460F460025144802904E
:1039800001200190002400200090FFF78DFC0546E7
:10399000AB2D00D1FEBDE8020E4940180090A81CD6
:1039A000C002891E44180CE0208802900298B042A0
:1039B00006D120464038C08F38800020019004E0B6
:1039C000241F0098801C8442EED800BF0198E1E7D4
:1039D0005555000000E00108FEB505460E460020E2
:1039E000019000270024009001F064FE0120FFF701
:1039F0005BFC0746AB2F00D1FEBDF80222494418FC
:103A0000B81CC002891E4018009036E02068401C97
:103A1000002831D1324600232146012001F0ECFD7F
:103A20001A4800F019FC01900198002803D01848AA
:103A3000C06980B2E0E717480069400840001549B6
:103A400008612A460023A11C012001F0D5FD0F4882
:103A500000F002FC01900198002803D00C48C069D6
:103A600080B2C9E70B480069400840000949086175
:103A70000748C06980B2BFE7241D00988442C5D3BF
:103A800001F0B0FD8020B7E700E0010850C300005E
:103A9000280500200020024070B505460E4600248F
:103AA00001F008FE31462846FFF796FF0446802CB9
:103AB00004D131462846FFF7A9FE044601F092FDE5
:103AC000204670BDF8B50027002400F0A9FD064689
:103AD00000BF35E0142060431C494018007C0028DA
:103AE0002CD0E0B2FEF78CFC002827D040201849EB
:103AF000887119E000BF992292003146154800F004
:103B0000C7FD0546002DF6D13046FCF7DBFB01462C
:103B100000903046FCF7A8FB0E48FCF7D3FB0146AB
:103B200000900C48FCF7A0FB14216143074A891858
:103B3000C868084905F0F6FB0028DBD1601C84B298
:103B4000054800788442C5DB3846F8BD38130020AC
:103B5000980500205A14002058020020F0B589B0C2
:103B6000002008900027079006900590002400256B
:103B70000490002603900120FE49087002900FE097
:103B8000FD4909780298884206D0029800F080FF2B
:103B9000012101900AF094FF0298401CC0B20290EB
:103BA00002980528ECDDF448007800F0A1FA022024
:103BB000F24908700127012625E0701E8000F049B7
:103BC000085A00281DD0781CC0B20746ED4948703D
:103BD000ED480770002008700320102300221146D2
:103BE0000090304609F0B2FF3902701E8000E44AAE
:103BF000105C081881B2701E800011520A200FF06C
:103C00005FFE701CC6B2052ED7DDE0480088E04993
:103C10000880012631E0701E8000D949085A00282A
:103C200029D0701E8000085A039003980012069055
:103C3000701E8000085C05900698C100059801433D
:103C40007000D34A1152701E8000CD49401841883F
:103C50000698401E16225043CD4A1152C54800789E
:103C6000C10031430698401E16225043C84A8218AC
:103C7000059840001152701CC6B2052ECBDD0224FF
:103C800012E00B2078434200C149BE48FCF7D3FA4A
:103C90000B2078434200112120460AF015F83C2001
:103CA0000FF00EFE601CC4B2BC42EADDC0E0079714
:103CB0000224BAE0012005E00122411EB14B5A5412
:103CC000411CC8B20A28F7DD0020AE4988720B22D9
:103CD0000E21204609F0F8FF0A200FF0F1FD002226
:103CE0000C21204609F0F0FF64200FF0E9FD0125CA
:103CF0002DE0681E8000A749085A0390039800121F
:103D000006900398002820D0069800281DD1781C22
:103D1000C0B207469B4948709B4807703902681E2D
:103D200080009C4A105C081881B2681E8000115205
:103D3000012094490870084685700322102120460E
:103D400009F0C2FF0A200FF0BBFD681CC5B20A2DA6
:103D5000CFDD01254AE0681E80008E49085A002800
:103D600042D0681E8000085A039003980012069003
:103D7000681E8000085C05900698012834D0601EFB
:103D800016214843824940186900405A00280AD148
:103D90000698C10005980143601E162250437C4AD4
:103DA00080186A0081520698401E162148437849BF
:103DB000411805984000085A002815D1681E800057
:103DC0007449401841880698401E16225043704A94
:103DD0001152E10029430698401E162250436C4AB6
:103DE0008218059840001152681CC5B20A2DB2DD38
:103DF00028216848FCF738FA022512E00B207843A6
:103E0000420063495F48FCF716FA0B2078434200F2
:103E10001121284609F058FF3C200FF051FD681C85
:103E2000C5B2BD42EADD601CC4B2BC4200DC41E761
:103E30000798B84200D03AE74F48007800F058F9A8
:103E4000012411E0601E80004D49085A0390039838
:103E5000001206900398002804D00698002801D18B
:103E600005200890601CC4B2052CEBDD02241FE085
:103E700000220C21204609F027FF64200FF020FDCE
:103E8000012511E0681E80004249085A03900398FA
:103E9000001206900398002804D00698002801D14B
:103EA00005200890681CC5B20A2DEBDD601CC4B269
:103EB000BC42DDDD0898002870D101260AE03648B2
:103EC0000188701E0122D2030241914332480180D1
:103ED000701CC6B2052EF2DD3C46A9E0012004901C
:103EE0007CE0601E1621484329494118049840008F
:103EF000085A002813D100210498401E214A115469
:103F0000601E40002449095A0498401E0122D20331
:103F100002419143601E40001F4A11525AE0601E48
:103F2000162148431A49411804984000085A039042
:103F300003984005000E069003984007400F059037
:103F40000698401E40001449095A0598401E012257
:103F5000D20302411140002929D101210498401EB9
:103F6000084A1154601E40000B49095A0498401E2B
:103F7000012214E085000020990000203600002076
:103F8000F0050020D20B0020840000203400002027
:103F9000CC06002004060020F20800205CE0D203DA
:103FA00002411143601E4000494A115212E00021B3
:103FB0000498401E474A1154601E40004449095A63
:103FC0000498421E0120C00310418143601E40003E
:103FD0003F4A11520498401CC0B2049004980A2829
:103FE00000DC7EE72146012000F00AFA601E3A4913
:103FF000085C401E3949085C06902046069900F08E
:10400000FFF905900698A04205D00598401E314959
:10401000085C012802D101202E4988720B220E2152
:10402000204609F051FE0A200FF04AFC601EC4B27F
:10403000022C00DB52E701260CE02948007886427A
:1040400006D0304600F024FD002102900AF038FD31
:10405000701CC6B2052EF0DD0898002826D1642019
:104060000FF02EFC40201F49887102241AE0002224
:104070000121204609F028FE611E174A515CFF22EB
:104080002D32514308460FF01BFC174800880028CA
:1040900001D1089004E014480088022800D108905B
:1040A000601CC4B2114800788442E0DD0898002802
:1040B0000BD109F049FC09F0E1FB64200FF000FC92
:1040C00000221521FF2009F0FFFD089809B0F0BD7E
:1040D000F2080020D20B00202409002056090020FD
:1040E0009900002098050020960000208400002000
:1040F000F8B505460026012418E0AC4214D00D485E
:10410000008800120C4908700A4800784870084678
:10411000847003200A23002211460090204609F0F3
:1041200015FD0A200FF0CCFB601CC4B2052CE4DDA9
:104130003046F8BD34000020D20B002030B50446D4
:104140000D4600222946204600F002F830BD00004E
:10415000F0B50346012500241148407A01281CDCF3
:1041600000200F4E767A0E4FB8553846407A8600BA
:10417000381D8351001F467A083082553E46707ABA
:10418000461C7E7204462046303008703A20487043
:104190002F2088700020C87000252846F0BD000040
:1041A000446C002000200749C861074800690421C9
:1041B000084305490861084600694021084302494F
:1041C0000861704728050020002002400021084AAD
:1041D000D1610849096902221143064A1161114659
:1041E0004861096940221143024A11617047000089
:1041F00028050020002002400022054BDA61054A14
:10420000126901231A43034B1A61018070470000B1
:1042100028050020002002400D48C06810210840F9
:10422000102805D10B48C069022108430949C8611B
:104230000748C06804210840042805D10548C06922
:10424000012108430349C86114200149C86070472F
:10425000002002402805002070B5044601F060FBF4
:1042600005460BE0601C002808D0002C04D001F0AB
:1042700057FB401BA04201D9032070BD0F48C06806
:10428000C007C00F0028EDD10C48C06820210840AD
:10429000202801D10949C8600848C0681021084099
:1042A000102805D00548C06804210840042803D11F
:1042B000FFF7B2FF0120E0E70020DEE70020024028
:1042C000F1B584B000200190002500240027009063
:1042D00048480078029002980BF076F9064600BF35
:1042E00006E0002030556100434A5052601CC4B2C1
:1042F000404800788442F4DB781CC1B20F46049831
:10430000401E3154781CC7B2012525E00498401E98
:1043100016214843394940186900405A002819D0ED
:104320000498401E40003449085A691E01228A4000
:10433000104381B20498401E40002F4A1152049845
:10434000401E162148432D4940186900405AC010AC
:10435000401E3754681CC5B2052DD7DD00BF0020B4
:104360000090781CC7B2002435E0315D781E814290
:104370002FD101252BE01620604320494018690009
:10438000405A002821D0162060431C49401869007B
:10439000405AC010401E305C002816D160001649FB
:1043A000085A691E01228A4010436100124A505285
:1043B00016206043114940186900405AC010401E41
:1043C00037540098401CC0B20090681CC5B2052D3F
:1043D000D1DD601CC4B2074800788442C5DB009878
:1043E0000028BCD10198039030460BF0BBF803982D
:1043F00005B0F0BD840000202C060020CC06002073
:10440000F0B58FB005460E46342102A8FBF72CFF0D
:104410000020019000240027009019215648FBF746
:1044200023FF0021681E554A1154554A1154012199
:104430001CE0681E16225043524A80184A00805AD7
:10444000002812D0681E162250434E4A80184A0097
:10445000805AC010B04208D10122701E474B1A5436
:1044600045480670C8B20FB0F0BD491C0629E0DD12
:10447000012009E0A84206D0FF22411E3F4B5A54BA
:1044800000223F4B5A54401C3F4909788842F1DDD5
:104490003BE002A939480FF083F9401CC4B2B44292
:1044A00000D138E00121601E02AA115401202AE047
:1044B000611E16225143334A89184200895A002945
:1044C0001FD0611E162251432E4A89184200895A74
:1044D00049050F0E791E02AA515C002911D1611EF7
:1044E000264A515C491CC9B20191791E525C01995E
:1044F0008A4206DD7A1E214B01999954791E204A81
:104500005454411CC8B20628D2DD02A807F0E8FFC7
:104510000028BED000BF08E00098411CC9B200913D
:1045200015490C54601E16490C5C601E1449085C49
:104530000028F1D101211BE0681E16225043114AC8
:1045400080184A00805A002811D0681E1622504355
:104550000C4A80184A00805AC210701E074B185C23
:10456000401E054B185C824201D1C8B27BE7491C52
:104570000629E1DD002076E7560900202409002005
:104580003D090020CC06002084000020FEB5044632
:10459000002600BF00BF00BF00BF601E1C490D5CAD
:1045A000322148431B4940184778601E3221484356
:1045B0001849401880780102601E32225043154A83
:1045C0008018C078081880B201906A1F601E3223DC
:1045D0005843104BC018011D0F48FBF72CFE601EFE
:1045E000322250430B4A115C0C480078FFF708FF59
:1045F0000290681F80B20090601E32214843054936
:104600000A5C3946019B029809F0A0FA3046FEBDCB
:104610008C000020D80A0020D20B0020850000204A
:10462000004870474023002030B503460024002096
:104630000025156027E000E05B1C1D78002D02D0EE
:104640001D78202DF8D100E05B1C1D78002D02D0D4
:104650001D78202DF8D01D78002D13D0641C8C42BD
:1046600011D1184603E015686D1C15605B1C1D78A0
:10467000002D02D01D78202DF5D11568002D00D118
:10468000002002E001E08C42D5D300BF30BD000025
:10469000F7B50546012631480068002835D1304875
:1046A0002E4908602CE02D480068006807683846ED
:1046B000FBF708FE0446285D202802D0285D00286C
:1046C00019D1224639462846FBF73BFE002812D175
:1046D0002248006800680C21415600290ADB284660
:1046E0000FF07AFA1D49096809680C228A5690422F
:1046F00000D0002608E019480068406817490860A3
:10470000164800680028CED100BF14480068002871
:104710000AD0002E08D11349029A0198FBF7BBFD7D
:1047200000200E49086017E00C48006800280DD0F2
:104730000A48006800682A468368029901989847E9
:104740000646002E08D10549086005E00649029A90
:104750000198FBF7A0FD00263046FEBD6003002057
:104760005403002048AD0108A0AD010870B505460E
:104770000026002D02D172B600BFFEE7082013F01C
:1047800031FC0446002C02D172B600BFFEE7002CBB
:104790000CD011F0CDFA256000206060044800685C
:1047A00044600348046011F0D1FA0126304670BD20
:1047B0005C0300201CB51E200AF006FF04461E21E3
:1047C0002046FBF751FD0948008B0849497D0091BF
:1047D00001900648837D007D401E800004490A58F0
:1047E000044920460AF080FE20461CBD98050020A2
:1047F00068000020BC83010870B50546002600242F
:104800002BA12846FBF765FD002802D12948007836
:1048100070BD29A12846FBF75CFD002801D1FF20CF
:10482000F6E72878232815D1681CFBF705FEC6B2E9
:10483000002E05DD21480078864201DC3046E7E79E
:104840001C480078864202D11A480078E0E701202F
:10485000C043DDE700240FE00B206043184A8118B5
:104860002846FBF736FD002804D12878002801D01F
:10487000601CCDE7601CC4B2104800788442EBDBBA
:1048800000240FE00B2060430E4A81182846FBF7F6
:1048900020FD002804D12002FE21084300B2B7E722
:1048A000601CC4B20A2CEDDB0020C043B0E700005E
:1048B0006D65000085000020616C6C0084000020A4
:1048C0006F0900205E0600200146104A08689042E9
:1048D00001D1012070470E4A0868904201D10220A0
:1048E000F8E70C4A0868904201D10320F2E70A4A2F
:1048F0000868904201D10420ECE7084A0868904219
:1049000001D10520E6E70020E4E70000004C00406C
:104910000044004000480040003801400050004082
:10492000FFB581B00C461D460A9E002000900198FC
:1049300000F0AEF80746254887420CD10920C00692
:1049400020600120400210800920C006286001205C
:104950008002308037E01E4887420AD10920C00615
:104960002060042010800920C006286008203080C4
:1049700029E0184887420AD11748206001208002A8
:104980001080154828600120C00230801BE01348C9
:1049900087420AD10920C00620600120108009202A
:1049A000C0062860022030800DE00D48874208D103
:1049B00009482060082010800748286010203080B7
:1049C00001E0FF200090009805B0F0BD2418002001
:1049D00094180020041900200004004874190020D5
:1049E000E419002000B587B0002201A9194801F0A0
:1049F0001BFE002206A9174801F0E8FD6846007B6F
:104A0000C011401C1449C8740298C003000CC8812E
:104A10006846817910480174684641790E484174AE
:104A2000684601790C4881746846817E0A48417560
:104A30006846417E084881756846007E06490875CB
:104A40006846C07E7D21090141180348018307B0F3
:104A500000BD0000641200209805002038B50A202F
:104A60000AF0B2FD04460A212046FBF7FDFB06488A
:104A7000007C00900448437C827C044920460AF074
:104A800033FD204638BD000098050020CE83010884
:104A900000B501460B000AF052FD060E0406080A96
:104AA0000C0E064800BD0648FCE70648FAE7064833
:104AB000F8E70648F6E70020F4E700007419002044
:104AC000941800200419002024180020E419002064
:104AD00070B5044600252068006840084000216841
:104AE000086000F01DFF054614E000F019FF401BB0
:104AF0007D21C90088420DD9606B20210843606385
:104B000003212120015500BF00212020015500BFB5
:104B1000032070BD20680068C007C00F0028E4D1E2
:104B200001212120015500BF00212020015500BF97
:104B30000020EEE710B50446F8492068884255D9B0
:104B4000F7480068F54A783A2168914201D1082176
:104B50004AE0F24A643A2168914201D1802143E05F
:104B6000EE4A503A2168914201D1C9143CE0EB4A27
:104B70003C3A2168914202D10121C90334E0E74A5D
:104B8000283A2168914202D10121C9042CE0E34A6C
:104B9000143A2168914202D10121C90524E0DF4A7B
:104BA0002168914201D109051EE0DD4A08322168E1
:104BB000914201D1082117E0D94A1C322168914263
:104BC00001D1802110E0D64A30322168914201D1D2
:104BD000C91409E0D24A44322168914202D101212C
:104BE000C90301E00121C904084055E0CB488038E1
:104BF0000068CA4A783A2168914201D108214AE006
:104C0000C64A643A2168914201D1802143E0C34AF7
:104C1000503A2168914201D1C9143CE0BF4A3C3A64
:104C20002168914202D10121C90334E0BB4A283AEC
:104C30002168914202D10121C9042CE0B74A143AFB
:104C40002168914202D10121C90524E0B34A2168BB
:104C5000914201D109051EE0B14A08322168914212
:104C600001D1082117E0AE4A1C322168914201D1DE
:104C7000802110E0AA4A30322168914201D1C91442
:104C800009E0A74A44322168914202D10121C903B7
:104C900001E00121C9040840002872D020680068A2
:104CA00008210840C0080028F7D020680068884321
:104CB0002168086099492068884254D99749783911
:104CC0002068884201D108204AE09449643920686C
:104CD000884201D1802043E09049503920688842C1
:104CE00001D1C0143CE08D493C392068884202D192
:104CF0000120C00334E0894928392068884202D164
:104D00000120C0042CE0854914392068884202D172
:104D10000120C00524E081492068884201D10005B6
:104D20001EE07F4908312068884201D1082017E041
:104D30007B491C312068884201D1802010E07849ED
:104D400030312068884201D1C01409E074494431EF
:104D50002068884202D10120C00301E00120C00484
:104D60006F49486055E06D4978392068884201D123
:104D700008204BE0694964392068884202D18020CC
:104D800044E058E0654950392068884201D1C01498
:104D90003CE062493C392068884202D10120C003CE
:104DA00034E05E4928392068884202D10120C004DD
:104DB0002CE05A4914392068884202D10120C005EC
:104DC00024E056492068884201D100051EE054497C
:104DD00008312068884201D1082017E050491C3171
:104DE0002068884201D1802010E04D493031206890
:104DF000884201D1C01409E0494944312068884201
:104E000002D10120C00301E00120C00443498039E0
:104E10004860606B01210843606304212120015533
:104E200000BF00212020015500BF206B002802D0C8
:104E30002046216B884739492068884255D938482F
:104E40000068364A783A2168914201D104214AE04B
:104E5000324A643A2168914201D1402143E02F4A0D
:104E6000503A2168914201D109153CE02B4A3C3A65
:104E70002168914202D10121890334E0274A283A6E
:104E80002168914202D1012189042CE0234A143A7D
:104E90002168914202D10121890524E01F4A21683D
:104EA000914201D1C9041EE01D4A08322168914295
:104EB00001D1042117E01A4A1C322168914201D124
:104EC000402110E0164A30322168914201D1091583
:104ED00009E0134A44322168914202D10121890339
:104EE00001E001218904084059E00C48803800683D
:104EF0000A4A783A2168914201D104214EE0074ADA
:104F0000643A2168914201D1402147E0034A503A76
:104F10002168914206D1091540E00000800002405E
:104F200000040240F74A2168914202D1012189031D
:104F300034E0F44A14322168914202D101218904FB
:104F40002CE0F04A28322168914202D101218905E2
:104F500024E0EC4A3C322168914201D1C9041DE0B1
:104F6000E94A2168914201D1042117E0E64A14324E
:104F70002168914201D1402110E0E34A28322168A2
:104F8000914201D1091509E0DF4A3C322168914282
:104F900002D10121890301E0012189040840002890
:104FA00073D02068006804210840800800286CD075
:104FB0002068006820210840002805D1206800688A
:104FC0000421884321680860CE493C31206888422A
:104FD00054D9CC493C392068884201D1042049E0A9
:104FE000C84928392068884201D1402042E0C5499B
:104FF00014392068884201D100153BE0C14920687E
:10500000884202D10120800334E0BE491431206877
:10501000884202D1012080042CE0BA49283120685E
:10502000884202D10120800524E0B6493C31206845
:10503000884201D1C0041DE0B3492068884201D1F3
:10504000042017E0B04914312068884201D1402083
:1050500010E0AD4928312068884201D1001509E0EF
:10506000A9493C312068884202D10120800301E037
:1050700001208004A4490839486054E0A1493C3922
:105080002068884202D104204AE055E09D49283931
:105090002068884201D1402042E09A4914392068B2
:1050A000884201D100153BE096492068884202D130
:1050B0000120800334E0934914312068884202D1F2
:1050C000012080042CE08F4928312068884202D1D9
:1050D0000120800524E08B493C312068884201D1C1
:1050E000C0041DE088492068884201D1042017E0EF
:1050F000854914312068884201D1402010E082495E
:1051000028312068884201D1001509E07E493C31F0
:105110002068884202D10120800301E00120800440
:10512000784944394860112121200155E06A00285E
:1051300002D02046E16A884772493C3120688842A3
:1051400055D97148083800686E4A3C3A2168914246
:1051500001D1022149E06B4A283A2168914201D1EC
:10516000202142E0674A143A2168914201D1491551
:105170003BE0644A2168914202D10121490334E0B5
:10518000604A14322168914202D1012149042CE085
:105190005C4A28322168914202D10121490524E06C
:1051A000584A3C322168914201D189041DE0564A97
:1051B0002168914201D1022117E0534A143221683B
:1051C000914201D1202110E04F4A283221689142BA
:1051D00001D1491509E04C4A3C322168914202D183
:1051E0000121490301E001214904084054E04548F8
:1051F00044380068434A3C3A2168914201D1022177
:1052000049E0404A283A2168914201D1202142E0F8
:105210003C4A143A2168914201D149153BE0394A90
:105220002168914202D10121490334E0354A143208
:105230002168914202D1012149042CE0314A2832EF
:105240002168914202D10121490524E02D4A3C32D6
:105250002168914201D189041DE02B4A21689142C5
:1052600001D1022117E0284A14322168914201D16C
:10527000202110E0244A28322168914201D14915A9
:1052800009E0214A3C322168914202D101214903BF
:1052900001E001214904084000286FD0206800681F
:1052A000022108404008002868D0206800682021BA
:1052B0000840002805D12068006802218843216841
:1052C000086010493C312068884258D90D493C3962
:1052D0002068884201D102204CE00A492839206820
:1052E000884201D1202045E00649143920688842CF
:1052F00001D140153EE003492068884206D10120D3
:10530000400337E044000240080402404E49206850
:10531000884202D1012040042CE04B49143120681E
:10532000884202D10120400524E047492831206805
:10533000884201D180041DE044492068884201D19F
:10534000022017E0414914312068884201D1202011
:1053500010E03E4928312068884201D1401509E01B
:105360003A493C312068884202D10120400301E0E3
:105370000120400435490839486054E063E032496F
:1053800050392068884201D1022049E02E493C3939
:105390002068884201D1202042E02B49283920682A
:1053A000884201D140153BE02749143920688842E2
:1053B00002D10120400333E023492068884202D112
:1053C000012040042CE0204914312068884202D199
:1053D0000120400524E01C4928312068884201D181
:1053E00080041DE019492068884201D1022017E09D
:1053F000164914312068884201D1202010E0134959
:1054000028312068884201D1401509E00F493C311C
:105410002068884202D10120400301E001204004BD
:10542000094958394860606B6063012121200155AA
:1054300000BF00212020015500BFA06A002802D033
:105440002046A16A884710BD580002400804024067
:1054500001460022002901D1012070472120405C33
:10546000002802D10023202043540223212043544A
:10547000086802680C4802408B6848681843CB688B
:1054800018430B6918434B6918438B691843CB6960
:10549000184302430868026000204863012321206A
:1054A00043540020D9E700000FC0FFFFF8B50446C1
:1054B0000D4616461F4600BF2020005D012801D181
:1054C0000220F8BD01212020015500BF022121202A
:1054D00001552068006840084000216808603B468C
:1054E000324629462046FDF7FFFA2068006802216F
:1054F0000843216808602068006804210843216887
:105500000860206800680821084321680860206856
:10551000006801210843216808600020D1E731B507
:10552000002400F0FDF9044600BF00F0F9F9001B6B
:1055300000998842F9D338BDF8B504460E460127D4
:10554000002500BF2448007E012801D10220F8BDBB
:1055500001202149087600BF2068012811D11F4889
:10556000FEF77AFE002830D1FEF71CFE1B48FEF73E
:1055700073FE07461A4800690421884318490861E8
:1055800023E01648FEF768FE00281ED1401E30605A
:10559000656813E02846FEF719FE1048FEF75CFE2A
:1055A00007460F480069022188430D490861002F12
:1055B00001D0356008E00120C0022D18A168C902A1
:1055C00060684018A842E5D800BF00BF002002492B
:1055D000087600BF3846BAE72805002050C300000F
:1055E0000020024003480069802108430149086106
:1055F0000020704700200240F0B51FB486B0074677
:1056000015461E460120039000240020029000BF92
:105610002548007E012802D102200BB0F0BD0120F8
:105620002149087600BF2148FEF716FE0390039833
:10563000002831D1012F02D10120029006E0022F73
:1056400002D10220029001E00420029000241FE019
:1056500022012846314604960595FAF7C7FD80B227
:10566000610001900798081800900199FEF7C4FDA9
:105670000E48FEF7F1FD03900D4800694008400018
:105680000B4908610398002800D004E0601CC4B2F4
:1056900002988442DCDB00BF00BF0020024908768C
:1056A00000BF0398B9E700002805002050C30000A0
:1056B000002002400748006980210840002805D0EA
:1056C0000548044948600548486001E001207047EA
:1056D0000020FCE70020024023016745AB89EFCDA5
:1056E00078B50346002200240020E3E0012696401E
:1056F0000D6835402C46002C7ED04D68022D02D01E
:105700004D68122D15D1D508AE001D462035A8597B
:105710005507EE0E0F25B5400646AE4330465607F8
:10572000F60E0D69B5402843D508AD001E4620365B
:105730007051186856000325B5400646AE43304602
:105740000D79AD07AD0F5600B540284318604D6880
:10575000012D08D04D68022D05D04D68112D02D0C5
:105760004D68122D18D1986856000325B54006469D
:10577000AE4330465600CD68B5402843986058681F
:10578000012595400646AE43304610264D6835400B
:105790002D09954028435860D86856000325B54028
:1057A0000646AE43304656008D68B5402843D86063
:1057B000012636074D683540B5427AD100BF404DCD
:1057C000AD69012635433E4EB5613546AD69ED07FD
:1057D000ED0F009500BF00BF3A4D9608B600A859DE
:1057E00095072E0F0F25B5400646AE4330460925D6
:1057F000ED06AB4203D100E05BE0002514E0324D42
:10580000AB4201D101250FE0304DAB4201D1022561
:105810000AE02F4DAB4201D1032505E02D4DAB42EF
:1058200001D1042500E005259607360FB540284331
:10583000244D9608B600A851274D28680546A54373
:105840002846012636044D683540B54202D105464A
:1058500025432846204D286068680546A54328460C
:10586000012676044D683540B54202D105462543F0
:105870002846194D6860A8680546A54328460126B4
:1058800036054D683540B54202D1054625432846C8
:10589000114DA860E8680546A5432846012676050F
:1058A0004D683540B54202D10546254328460A4D8C
:1058B000E860521C0D68D540002D00D016E778BD79
:1058C00000100240080001400004004800080048A1
:1058D000000C004800100048000401400246136913
:1058E0000B40002B01D0012000E0002070474269EE
:1058F0004A4042617047002A01D0816100E0816224
:1059000070470000024800680005000D7047000065
:105910000058014001480068000C704700580140E1
:105920000148006870470000140000200248006829
:10593000401C0149086070471400002010B506485B
:1059400000681021084304490860002000F006F8B0
:1059500000F017F8002010BD0020024070B504468A
:1059600000F054FA06467D21C900FAF715FC0546F9
:1059700001F080FA00222146501E00F00FF80020AE
:1059800070BD704700BFC206D20E01219140024A8D
:10599000116000BF7047000000E100E070B50446F0
:1059A0000D4616462946204603F082FB70BD0000D6
:1059B00003480068FF21013108430149086070472E
:1059C00000700040F8B504460025002601210904B6
:1059D00020680840884266D15648006A03210902BF
:1059E0000840032212026168114088425BD000BF68
:1059F0005048C0690121090708434E49C86108465B
:105A0000C06909040840009000BF00BF4A48006810
:105A10000915084348490860FFF782FF054606E07C
:105A2000FFF77EFF401B642801D90320F8BD4248E0
:105A30000068FF21013108400028F1D03D48006A8C
:105A400003210902884306463A48006A01210904F5
:105A50000843384908620846006A0121090488435E
:105A6000344908620846066202203040002811D0FE
:105A7000FFF756FF054607E0FFF752FF401B2F498F
:105A8000884201D90320D1E72A48006A0221084050
:105A90000028F1D02748006A032109028843616881
:105AA0000843244908622078C007C00F002807D0A7
:105AB0002048006B80088000A16808431D490863E6
:105AC000022120680840022808D11A48006B0321EF
:105AD00009048843E16808431649086301218904E1
