:020000040800F2
:1000000048740020410100086B01000817690008CE
:1000100000000000000000000000000000000000E0
:1000200000000000000000000000000049B00008CF
:100030000000000000000000FF00000849C00008A8
:1000400075010008750100087501000875010008B8
:1000500075010008750100087501000875010008A8
:1000600075010008BD260008C92600080D270008F4
:100070007501000875010008750100087501000888
:100080007501000875010008750100087501000878
:100090007501000875010008750100087501000868
:1000A00075010008750100087501000865C80008A1
:1000B00075C8000885C80008750100080348854612
:1000C00000F060FD00480047550301084874002017
:1000D000064B19680868203080F30988022080F3F5
:1000E00014883FBCAE4662B600BD0000AC030020E1
:1000F000EFF3108072B6704780F310887047EFF30B
:1001000009800E4B1A6820381060F0C044464D46F6
:1001100056465F46F0C008B572B613F070F962B685
:100120000CBC116808681030F0C8A046A946B24659
:10013000BB4680F309882038F0C81847AC0300207C
:100140000D480E49026800608A4203D00C4880477F
:100150000C4800470C480D4901600D480B490160EF
:100160000C4801688D4640680047FEE7FEE7FEE761
:10017000FEE7FEE7FEE70000F07F0020EFBEADDE09
:10018000F9C00008BD00000818100240010000007E
:100190000000014000D8FF1F30B50B46014600208B
:1001A0002022012409E00D46D5409D4205D31D467D
:1001B0009540491B2546954040191546521E002D75
:1001C000F1DC30BD10B5202A04DB0846203AD040CF
:1001D000002110BD0B46D340D0402024A21A9140EC
:1001E0000843194610BD0000004870472449010823
:1001F00010B50446FFF7F8FF0068005DC007C00FA8
:1002000010BD01464139192900D8203070470346F6
:100210000B439B0703D009E008C9121F08C0042A3A
:10022000FAD203E00B780370401C491C521EF9D22D
:100230007047D2B201E00270401C491EFBD27047E9
:100240000022F6E710B513460A4604461946FFF7A2
:10025000F0FF204610BD421E5378521C002BFBD1EC
:100260000B781370491C521C002BF9D1704710B544
:10027000044605E00B780370401C002B00D0491C9D
:10028000521EF7D2204610BDCAB2401E4178401C13
:100290008A4202D00029F9D100207047421C01781F
:1002A000401C0029FBD1801A704710B5002200E0E5
:1002B000521C835C8C5CA34201D1002BF8D1D8B2D4
:1002C000E1B2401A10BD30B504460020034600E0FC
:1002D0005B1C934203D2E05CCD5C401BF8D030BD88
:1002E00010B5044600E0401C0378002BFBD100E071
:1002F000401C521E04D30B78491C0370002BF7D10D
:1003000000210170204610BD03460A780270401C8F
:10031000491C002AF9D11846704730B5054600201F
:10032000034600E05B1C934205D2EC5CC85C201ADB
:1003300001D1002CF6D130BD70B5104D002800D190
:100340002868002414E00A4602E09E4203D0521CB2
:100350001378002BF9D1DAB2224307D0002B06D054
:10036000002C04D000210170401C04E00446401C15
:100370000678002EE7D12860204670BD9C0300203F
:10038000F7B582B00F460026029C0CF035FB0090BA
:10039000006801902578641C002D05D0FFF724FF2C
:1003A0000068405DC007F5D12B2D02D02D2D1CD04B
:1003B000641E00980021016039462046049A00F02E
:1003C000FBF80146002F04D03868A04201D1029802
:1003D00038600098006802280BD00098019A0260EB
:1003E000700506D5484205B0F0BD012080020643E5
:1003F000DFE70846F7E770B506460CF0FDFA04683B
:1004000005460A220021304600F07CF92C6070BDC0
:1004100070B506460CF0F0FA046805460A22002181
:10042000304600F06FF92C6070BD70B502464A404E
:10043000D50F40004A00ED0740085208002814D0AC
:10044000002A12D0C40DD30D41020120C005520272
:10045000490A520AE41A091812187D34914201D34C
:10046000641C00E04900002C01DA002070BD00236C
:10047000914201D3891A0343400849000028F7D16B
:1004800000290AD0914202D10121C90705E0914219
:1004900001D2012101E00121C943E005C018401942
:1004A00000F068F970BD410040020122400AD20507
:1004B000090E80187F2901DA00207047962903DC95
:1004C0009622511AC8407047963988407047C20F2B
:1004D000D207400040080BD0C10D0723DB01C9182B
:1004E00040020905400A1143C20840071143704702
:1004F000002001467047CB0FDB07490010B54908C3
:1005000002460A4307D00A0D07240903E401090B38
:10051000121B002A01DC002010BDC900440F0C434F
:10052000C100E018D205801800F024F910BD0000C9
:100530000122D207002800DB101A002900DB511A23
:10054000814270470122D207002800DB101A0029DF
:1005500000DB511A88427047F0B51FB406460020F0
:1005600082B005464024019100901BE0019922468B
:100570000F463046FFF726FE049A059B801A9941E4
:1005800010D310461946224600F00EFB361A8F4152
:100590000197224601200021009F00F005FB38183A
:1005A0004D4100902046641E0028DFDC019B00982E
:1005B0002946324607B0F0BDF7B582B0029C00274D
:1005C0002078641C15460197302802D0002D15D0E4
:1005D00015E020780127641C782804D0582802D020
:1005E000002D09D00BE0002D01D0102D07D10027E0
:1005F00010252078641C02E0082500E00A2500266A
:10060000009610E00099012769430818020C29465A
:1006100080B2714300908E183804864201D30120C5
:1006200001902078641C294600F0E1FA0028E9DAFC
:100630000398002805D0002F01D0641E00E0029C22
:1006400004600198002806D00CF0D6F90221016060
:10065000C81E05B0F0BD009930040843F9E700005A
:100660000FB400B589B00CA900910B990023CB60A1
:10067000204B214A06930792042201921F4A0292BC
:100680001F4A089202466B46002000F04EFB09B05C
:1006900008BC04B0184770B586B006460020C043B9
:1006A0000190002015460C460091029104903246BC
:1006B000694604A8FFF7D4FF024604982118002DCC
:1006C00005D0002801D0084600E0204628600498A4
:1006D00000280DD0002A02DD0098884208D0081BAF
:1006E0000190009432466946029404A8FFF7B8FFCF
:1006F00006B070BD810F0008A10F0008FFFFFF7F4B
:10070000F1010008F7B5009C0F4600262578641C0F
:10071000002D05D0FFF768FD0068405DC007F5D1EA
:100720002B2D02D02D2D18D0641E39462046029A5A
:10073000FFF742FF002F04D03968A14201D1009990
:1007400039607105022400290BDA4042002803DDDC
:100750000CF052F90460A007FEBD012080020643A0
:10076000E3E70028F8DA0CF047F904600048FEBD22
:10077000FFFFFF7F002904DA401C490001D1400837
:100780004000704770B40024050C05D1102400040B
:1007900002D1002921D01124050E01D10002083414
:1007A000050F01D10001241D850F01D18000A41C7B
:1007B000002801DB4000641C002908D020252E1BE6
:1007C0000D46F540A14000D0012129430843010610
:1007D0001B1B000ADB1D02D5002070BC7047DB0527
:1007E000181880180029F8DA401C4900F5D170BCAF
:1007F0004008400070470000F0B5074608465840E2
:1008000087B0C00F049048000E46590040084908C0
:10081000BC1A884105D2384631461E4617460B465B
:1008200002465800400810434CD0300D039040055C
:100830005900400D490D0590401A0290402872DA87
:1008400018030121000B0905084301900498009248
:10085000002805D001995242002088410092019061
:10086000029840210A1A0199009800F09DF9054666
:100870000C466B4607CB00F0A7F9C0197141039AEB
:100880000E0D0023D71756401A467A40164344D01F
:10089000049A002A2DD0029A012A039A15DC120527
:1008A000C01A914101263605001C7141D20F059EE8
:1008B000D2070093019202962A46234600F08FFB4E
:1008C00007B0F0BD38463146FAE71605224A0F4612
:1008D000B218C01AB74101210905001C4F41001888
:1008E0007F41114618187941E20F10436D19644198
:1008F00013E0E2076D0815436408C2071443039A26
:1009000001261205C01A91413605001C7141CE071F
:10091000400830434908C01851412A46234600F098
:1009200051FBCDE7FFE7049801224000C117121ADE
:1009300000238B4104983146C417381AA141EEE7D1
:1009400030B40124E407634030BC55E730B40124DF
:10095000E407614030BC4FE70000E0FFF0B51FB492
:1009600088B00B990998002448400999C00F4900A4
:1009700049080991C0070B990090490049080B915B
:1009800009990898A64608431CD00B990A98084371
:1009900018D0099801244000420D4800410D0998E3
:1009A00024050003000B204309900B980003000B63
:1009B00020430B9050181C49401800220190144607
:1009C000104605E0002001460DB0F0BD032801DA15
:1009D000034600E003239C46C11A0AAE0AE05F000A
:1009E00008ADED5B4F00F75B7D430027AA187C4103
:1009F000491C5B1E6145F2DD410004AB5A522104E3
:100A0000120C0A43240C401C0828DFDB01980290DA
:100A10000099704601910090059B049A07990698E9
:100A200000F0DDFAD0E700000DFCFFFFF0B50C464A
:100A30005C4085B0E40FE40703944C000026640892
:100A400059009446490802460296224321D0624644
:100A50000A431ED06200570D4A000E032303550DB2
:100A6000012402462C492405781B1B0B360B401829
:100A700023432643614600901C46501AB44103D3D9
:100A80000098401C009002E0921800985B410028FA
:100A900003DA0020014605B0F0BD00200121090560
:100AA0000746864611E064461D46141BB54106D331
:100AB0006546521BB341744607430C43A646CD0717
:100AC00040084908284392185B4105460D43EAD186
:100AD0001046184313D060461946504071400843F1
:100AE00006D06046101AB34106D20122002306E068
:100AF00000220123DB0702E00122D24353100098B9
:100B000074460105381C6141029C039D001969412E
:100B100000F058FABFE70000FD0300004A00090397
:100B20000123090B1B0519430A4B10B5520D9A42BC
:100B300002DA0020014610BD064B34339A4203DC32
:100B40009A1AFFF73FFB10BD034BD21800F02CF8A8
:100B500010BD0000FF030000CDFBFFFF10B5002912
:100B600004DB0124E40740428C412146002B04DBD6
:100B70001C460123DB075242A341994200D1904217
:100B800010BD0000064C0125064E05E0E36807CCC9
:100B90002B430C3C98471034B442F7D3FFF792FA3A
:100BA000D06D0108F06D010810B5202A04DB014664
:100BB000203A9140002010BD914020239C1A03460A
:100BC000E3401943904010BD10B5202A06DBCB1737
:100BD0000846203A1041C1170B4306E00B4613416B
:100BE000D0402024A21A91400843194610BD3A284B
:100BF00000D23038202302469A43412A01D31046BE
:100C00003738884201D30020C0437047FFB50878C9
:100C100089B01546FF2805D0491C2D2804D0002294
:100C2000002407E000240BE00122F9E70A235C43DB
:100C30000419491C0878FF28F8D1002A00D0644222
:100C4000002004902A7801462D2A01D02B2A0FD1AA
:100C50006D1C2D2A02D00022049209E00122FBE73C
:100C600000260A2233466D1C00F00BFA3818714139
:100C70002F78FF2FF4D10C9AA218069202460A434D
:100C800004D0FF23069A9133DA4205DA002109984D
:100C90000A4606C00DB0F0BD0024B74AB54D264641
:100CA000079200F02BFA029006980391002801DACF
:100CB000474200E0074639050020AF4A001C514179
:100CC0000191009012E0F80707D022462B463046EB
:100CD0000799FFF743FE0646079122462B4610462A
:100CE0001946FFF73BFE04460D467F10002FEAD160
:100CF0000698019B0028009A0399029806DAFFF7EC
:100D000095FE3246079BFFF791FE05E0FFF726FEB2
:100D10003246079BFFF722FE049A002A02D00122E6
:100D2000D2075140099A03C2B4E7FFB591B0002041
:100D300009900025ED432E209E685C681F460190B7
:100D4000B9696D1C129888470090396A8847002855
:100D5000F6D10098401C0AD00D20C0018443002E1B
:100D600012DD00982B2809D02D280DD103E000209A
:100D7000C04315B0F0BD012080020443B9696D1C69
:100D800012988847761E009003A9600501D52D2092
:100D900000E02B206A461073491C0CA80F910290AA
:100DA0000AE0B9696D1C1298884700900120400242
:100DB00004431398761E0560002E02DD009830284B
:100DC000EFD001990098884246D18020044308E082
:100DD0000998401E09900120400204431399681CA1
:100DE0000860B9696D1C761E1298884700903028FB
:100DF000EED031E00199884205D1200603D480204D
:100E00000443761E1EE000980BF026FF002826D033
:100E100001204002044307A90F980331761E88423F
:100E20000BD200980F99303808700F98401C0F9023
:100E3000200607D50998401E03E0200602D4099831
:100E4000401C0990A00502D51399681C0860B96977
:100E50006D1C129888470090002ECBDC59E0002EC4
:100E600057DD0098652801D0452852D1A00550D5FE
:100E7000032000028443B9696D1C761E12988847CE
:100E80000090002E0CDD2B2804D02D2808D1FF2047
:100E900001300443B9696D1C12988847761E009092
:100EA000E00501D52D2100E02B2102980170029868
:100EB000401C0290019025E00120400204430EA94D
:100EC00002980131761E88420ED20098029930387D
:100ED0000006000E087003D10299019881420AD9D8
:100EE0000298401C029006E0E00501D5234801E08D
:100EF000224840420990B9696D1C129888470090B9
:100F000013980560002E04DD00980BF0A5FE002864
:100F1000D2D1F969129888470F99FF200870029979
:100F200003AA087000200A900B900CA90AA8099B3C
:100F3000FFF76CFEA00502D40120C04319E724206E
:100F4000044209D0E00713D138680B9A0A99031DAF
:100F50003B60006806C00BE00B990A98FFF7CBFADC
:100F60000146E00704D13868021D3A60006801605C
:100F70002846FEE6000014400000F03FF1D8FFFFD5
:100F80004268002A08D001680B78491C002B03D066
:100F9000521E06C0184670470121C160881E704766
:100FA0004268002A0BD0C3680168002B07D1836810
:100FB0008B4204D0491E521C06C0002070470020FE
:100FC000C043704710B5002B08DA0024401C614173
:100FD00092185B411A4301D14008400010BDF0B5A2
:100FE0001FB482B005460C0003D008460BF0E0FCAD
:100FF00002E00BF0DDFC203002460090214628463E
:10100000FFF7D2FD049B059A04460F46184311438F
:10101000084314D0184610431BD0009840210A1AE8
:1010200018460599FFF7CEF805460E46009A059931
:101030000498FFF7B9FD084305D0012004E02046DD
:10104000394607B0F0BD0020C11705430E432C43BD
:10105000374300990E986305401A7905E40A002287
:101060000C43FD0A0A3002D500200146E9E70105DC
:10107000101969410C9C0D9D00196941FFF7A2FFF1
:10108000DFE7F0B51FB486B0002000900190029019
:101090000698069980B204900798090C020400147F
:1010A000114307900027089D099806913E463C464B
:1010B00003900398A9B20204000C039004982D0C2D
:1010C0001543484300212246FFF76EFDC7197141C1
:1010D00010340E46402CECDB3846029AFFF764FDD4
:1010E000009A019B8018009059410298019110309C
:1010F00002904028CCDB00980BB0F0BD0EB5054A3D
:1011000002920022009213460192FFF768FF03B09B
:1011100000BD00003304000070B58C180578401C39
:101120006B075B0F01D10378401C2A1106D10278AE
:10113000401C03E006780E70401C491C5B1EF9D170
:101140002B0705D40023521E0DD40B70491CFAE75F
:101150000378401CCB1A921C03E01D780D70491CCB
:101160005B1C521EF9D5A142D8D3002070BD0000EF
:10117000F3B581B0002100910024334E401E45009C
:101180000B20604381190298FFF78FF8002811D0D7
:10119000641C0A2CF4DB00242C4FA000C119029817
:1011A000FFF783F800280DD0641C042CF5DB012424
:1011B000274F13E0274A0120515BA04001435153C0
:1011C0000098FEBD0620FEBD0B2023496043411858
:1011D0000298FFF76AF8002806D0641C78788442E9
:1011E000F2DB1E48786310E00720FEBD006804684B
:1011F0002046FFF753F8024621460298FFF78DF884
:10120000002817D0786B40687863786B0028EDD1A0
:10121000002420460B214843305C00280CD0641C7D
:101220000A2CF6DB0B4A0120515BA04001435153CD
:101230000098FEBD0820FEBD0B2060438019029976
:10124000FFF762F8EEE70000A60500206241010802
:1012500018000020D6090020B708002058030020FD
:10126000F3B58DB00C4600200B90414EB07A0028AB
:1012700008D04048A50040590FF02CF93E4840598D
:101280000FF028F93D4904200855B07A002804D011
:10129000204603F065F804F0A8FF02A8009004AB14
:1012A00003AA05A9204602F0C1FF6846808906907E
:1012B0000120079000250895099506A9059803F0D7
:1012C0000DFE68460089069007950220089006A941
:1012D000049803F003FEE100294A611889180D986B
:1012E0004870601E85002E46EC36B0B201A902F0AF
:1012F00019F90D9A210312021143B21C771CEF3524
:1013000089B20C92002813D00191B0B202F07EF99C
:10131000B8B2002102F07AF90C98002180B202F0F4
:1013200075F9A8B2002102F071F90B980FB0F0BD69
:1013300068468088000A0209A24206D102070D9879
:10134000120F824201D10020F0E70191B0B202F009
:101350005DF9B8B2002102F059F90C98002180B271
:1013600002F054F9A8B2002102F050F9DDE70000C4
:1013700018000020D8110020F4110020B501002031
:101380009D0C0020F8B50F4601280FD02C4E2D4D96
:1013900031781422491E5143491902280AD00328E2
:1013A00046D10120087409F007FF41E0384606F0F5
:1013B0000BFDF8BDC868002823D0FEF76FFF044678
:1013C0003846FEF76BFF011930781422401E504357
:1013D0004019891CC0680FF0A7FE31781422491EFD
:1013E00051434919C860611C40183946FEF78CFF0B
:1013F00030781422401E132150434019C068015513
:101400000EE03846FEF74AFF401C0BF02BFB31780C
:101410001422491E51434919C8603946FEF774FF2A
:1014200030781421401E48434019C168002901D07A
:101430000020F8BD1421FEF703FF0E20F8BD0000C8
:1014400058020020F00F0020F0B587B00E9E0F9DCF
:101450000D9C7D273F01D21B6F46FA767876B976D0
:101460003B76002206A91D4804F06AFB002802D042
:10147000FF2007B0F0BD69460E714C710C98887161
:10148000002005901822164C0C2E00D962730C21F6
:10149000012D0BD0022D0DD06273002201A90F483F
:1014A00004F0BEFB00280AD0FF20E2E76A46107372
:1014B0006173F2E740206A4610736173EDE7607B69
:1014C000010220790143FF201B3002F09FF8054AFA
:1014D0000121024804F08FFA0020CAE7C40E002060
:1014E000B80D0020F2320000F8B508F05BF802F009
:1014F000EBFE01F0FFFD02F0CDFD01F065F90AF011
:101500009DFE00F0D3FB0AF06BFE05F019FA0028EF
:1015100003D001F0DFFD06F041FB05F083FA00285F
:1015200012D032200AF0B2FB06F0DCFAE1202F4D97
:101530004002A86001242046A9680BF0F1F9641C60
:10154000E4B2052CF7D904E032200AF09FFB06F044
:10155000C9FA05F0E5FC0BF0EDF9254C0126A07861
:10156000FF27B603234DF537002831D0012231463D
:10157000284603F06AFD38460AF088FB002231460F
:10158000284603F062FD64200AF080FB0122314608
:10159000284603F05AFD64200AF078FB0022314609
:1015A000284603F052FD64200AF070FB0122314608
:1015B000284603F04AFD64200AF068FB0022314609
:1015C000284603F042FD08F0A5FF0120A072F8BDF7
:1015D00001223146284603F038FD38460AF056FB12
:1015E00000223146284603F030FDECE7B80D00201C
:1015F000180000200004004870B50446204609F099
:1016000053F805462046183008F0D8FF2843024614
:101610000F480088012811D020898004010D491C41
:10162000207B4007400F801C814060790309012026
:101630009840606341432163104670BD0120400221
:101640006063A0680001800A401C40022063F3E749
:101650004003002000B585B002200090FF23002247
:101660000D2101A809F0CAFA02990198049103908A
:10167000012009F051FAFF2009F0A6FA6846007B24
:10168000002803D16846407B002802D0012005B025
:1016900000BD0020FBE7000070B50126B603FF2562
:1016A0000D4CF5350FE001223146204603F0CDFC0C
:1016B00028460EF0E9FE00223146204603F0C5FC24
:1016C000284603F051FB00F009F80028EBD009F0A0
:1016D00035FA09F047F970BD0004004808B501204B
:1016E00000900121044803F0A5FC002801D000204F
:1016F00000906846007808BD00040048FFB587B038
:1017000016461D4600240120069000270020009068
:10171000FF233246102102A809F070FA03990298BB
:1017200005910490012009F0F7F9FF2009F04CFA27
:101730006846007C002842D130460BF093F90746FA
:1017400038003CD0FF223146FEF773FD33E02348DA
:101750000088012815D0012108980019FEF71CFD0A
:10176000024600200090FF23112102A809F046FA4A
:1017700003990298059104906846007C00281ED1C8
:1017800001E03146E8E7FE2009F0A6FA002816D16C
:10179000079832460119384609F020FAA419FF20AB
:1017A00009F012FAFF2009F00FFA012009F0B4F94C
:1017B000FF2009F009FA6D1E681CC8D106900120AF
:1017C00009F0AAF9FF2009F0FFF9002F02D03846EE
:1017D0000BF016F906980BB0F0BD00004003002096
:1017E000FFB587B016461D4600240120069000274D
:1017F00000200090FF233246102102A809F0FEF9D4
:101800000399029805910490012009F085F9FF20C1
:1018100009F0DAF96846007C002846D130460BF022
:1018200021F90746380040D03BE0274800880128CE
:1018300015D0012108980019FEF7AEFC02460020E1
:101840000090FF23182102A809F0D8F90399029803
:10185000059104906846007C002826D101E03146BD
:10186000E8E7FF2009F0B0F9FF2009F0ADF9FE200C
:1018700009F0AAF9079832460019394609F0AEF97D
:10188000A419FF2009F0A0F9FF2009F09DF909F043
:1018900045F8052809D1012009F03EF9FF2009F09B
:1018A00093F96D1E681CC0D10690002F02D03846F7
:1018B0000BF0A6F8012009F02FF9FF2009F084F9B8
:1018C00006980BB0F0BD0000400300208AB0002550
:1018D000002000900AF0C2F80126A448805D01288B
:1018E00001D0002870D1701E810109904018A049D4
:1018F000089040180446403007900078482803D1EB
:101900000898085C5A2806D00127E0192038C07FC3
:10191000482802D004E0402517E0E05D5A2802D0B4
:10192000402F02D00EE07D1E0FE00020914A11787A
:10193000002902D1235C0D2B0DD0401C4128F7DB80
:10194000012000907F1C412FDFDB0098002810D081
:101950000020009002E10021215484480321815598
:1019600016708548002302221946806910F086FE11
:10197000E6E73E2D23D03F2D27D0402D2BD06019F8
:1019800080780190EF1C01984006400E06904019A7
:10199000C01C02900298402802DD02984138029053
:1019A000029885427ED00298854218DA069A61191B
:1019B000D21C724802F05FFD6F49087023E007985F
:1019C000007801900027DEE7ADE069490898085CDF
:1019D00001900127D7E7607801900227D3E74120E3
:1019E000421B61196548059202F045FD01466248B7
:1019F0000170059A06982146821AD21C5F4802F0AF
:101A00000DFD5D4908705C4A107800284ED002999F
:101A1000615C81424AD15549012088555848019955
:101A200080192038C17740210698CA1B904209DCF2
:101A3000099A382042435348E1191018069AFEF7D4
:101A4000E6FB13E00998382358434E4BE119C018C0
:101A50000490FEF7DCFB4120C11B069A0498521A41
:101A60004018521C401E2146FEF7D1FB02988542C9
:101A700005DA06996019091DFEF7E2FB0CE040202B
:101A8000411B6019FEF7DCFB41200699401B091A37
:101A9000491D2046FEF7D4FB37488188491C8180C8
:101AA000304600E002E006F0E3F857E040210698F7
:101AB000CA1B904209DC099838225043314AE11987
:101AC0008018069AFEF7A3FB13E0099838235843C1
:101AD0002C4BE119C0180390FEF799FB41210698A1
:101AE000C91B421A0398521C4018401E2146FEF79B
:101AF0008EFB0298854205DA06996019091DFEF7EA
:101B00009FFB0CE04020411B6019FEF799FB412030
:101B10000699401B091A491D2046FEF791FB1649FC
:101B20004888401C4880184880192038C17F012906
:101B300014D10021C1770D48815D052901D1012112
:101B40008155304602F00CFC0346701E810141189D
:101B5000074841220918184604F018FD761CF6B211
:101B6000052E00D8B9E610F063FCB5E6B5010020FB
:101B7000541000202100002078020020C41D002005
:101B8000B0010020080A00207002002038B51C4671
:101B90000D4B0125DD701971FF290CD0134601464C
:101BA000FE220020009409F0D9FB21460748FEF7E9
:101BB00047FB002038BD13460146FF220020009459
:101BC00009F0CCFBF1E7000018000020580B0020C2
:101BD00038B500240A4A0023D3701071FF2807D0BB
:101BE0000091FE221946184609F0B8FB204638BD80
:101BF00000230091FF221946184609F0AFFBF5E7D4
:101C00001800002070B5002355080AE09C000C5B0A
:101C10005E002404761C76008E5B344306683460D4
:101C20005B1C9D42F2D8D20703D09A00895A026801
:101C300011800068006870BDF0B5002397080EE0C1
:101C40009D006C184D5DE6782D062E436578A478CE
:101C50002D042402254304682E4326605B1C9F420A
:101C6000EED894071FD09407A40F012C03D19D0038
:101C700006684D5D3570022C07D19C000D5D2D026C
:101C800064186478254304682580D24392070AD1FA
:101C90009A008B5C1B0251184A7813430268138028
:101CA00002688978117000680068F0BD10B50848B6
:101CB000064901601021C16000214171017141613B
:101CC00081610121016202F007FC10BD0030024079
:101CD000C41D0020F0B587B000200190002501242C
:101CE000E0002018DF4F0690C6197078002876D0E3
:101CF000DD48007B002802D106980021395402A853
:101D0000009004AB03AA05A9204602F08FFA6846AA
:101D100081890022059803F098F90A2009F0A4FFB0
:101D200068460189049803F085F900280ED16846B9
:101D300081890122059803F088F90A2009F094FFAF
:101D400068460189049803F075F901906846818915
:101D50000022059803F079F97078012806D002284E
:101D60000FD0032818D004282BD120E00198012897
:101D700003D00198002802D023E0042521E00325A8
:101D80001FE00198012803D00198002802D018E034
:101D9000042516E0032514E00198012803D00198DA
:101DA000002802D00DE002250BE0012509E0019892
:101DB000012803D00198002802D002E0012500E0AC
:101DC0000225042D01D0022D0CD1A64AA0003732E5
:101DD0001158A64B994203D2491C115002E0C7E0AA
:101DE00000211150032D01D0012D21D19D4AA000C9
:101DF0004F3211589D4B994202D2491C115001E0BB
:101E000000211150984B587D022808D19849994AD1
:101E1000085D5279904202D8401C085508E0944968
:101E200094480A5D4079824202D9002058750855CD
:101E30008C489049A70037300988C0598C468842A1
:101E400042D3604507D1874A069907235354114668
:101E50003731401CC8518348864B4F30C2596245C8
:101E600001D90021C1517F4859883730C0591A46DD
:101E700088421BD9FF21F531884217D27A49487D23
:101E8000002802D0022803D01EE0012048751BE084
:101E9000774B1179185D884216D95179884213D24F
:101EA000714803214175002018550DE0FF38724933
:101EB000F538884208D26C48417D002901D00021C4
:101EC0004175204600F0DAF866486A494F300A88C2
:101ED000C0599446904238D3604507D1614A06996B
:101EE0000823535411464F31401CC8515D4A614983
:101EF0003732D059604501D90020D051594849881E
:101F00004F30C059884218D9FF21F531884214D288
:101F10005549487D012802D0032807D015E0514AD1
:101F2000069805231354022048750EE04D4A069882
:101F3000062313540020487507E0FF384E49F53852
:101F4000884202D2204600F0BDF8464F0698385C21
:101F5000401F03000AF043FD0A1421060D2E3B49E1
:101F60005764727F20460BF0A7FC06990020785436
:101F700071E020460BF0A2FC0699002078546AE03C
:101F80003948017B002966D1317AC90763D0012124
:101F9000017320460BF08EFC5DE03348017B002985
:101FA00059D1317A890756D50121017320460BF0AA
:101FB00082FC50E02C48017B00294CD1317A490742
:101FC00049D50121017320460BF077FC43E02648F8
:101FD000017B00293FD1317A09073CD501210173EA
:101FE000022120460BF069FC35E01F48017B0029E7
:101FF00031D1317AC9062ED5012101730321204642
:102000000BF05BFC27E01848017B002923D1317AD3
:10201000890620D50121017320460BF050FC1AE0FF
:102020001148017B002916D1317A490613D50121C7
:102030000173022120460BF042FC0CE00A48017BB0
:10204000002908D1317A090605D501210173032140
:1020500020460BF034FC641CE4B2052C00D83FE6AB
:1020600007B0F0BD9D0C002018000020FFFF00000D
:10207000BB010020B80D00200BFE0000F0B50026CB
:10208000C1000F4B4118CA189478D57812797D2772
:10209000FF007C437D437A43870018463730C059A0
:1020A000A04202D10920585407E00A24A84201D1D5
:1020B0005C5402E0904200D15C543046F0BD000018
:1020C0009D0C0020F0B50026C1000F4B4118CA1826
:1020D00054799579D2797D27FF007C437D437A43FB
:1020E000870018464F30C059A04202D10C205854E6
:1020F00007E00D24A84201D15C5402E0904200D1D7
:102100005C543046F0BD00009D0C002010B50C2141
:102110004143304A800089184C78FF3269322300ED
:102120000AF05DFC0B565656071B242F39444D44CC
:1021300056008868294AC10041182748405C117838
:10214000884204D0002802D01070012010BD8842BF
:102150003ED000283CD1107010BD89680B78145C0B
:10216000A34235D009781154012010BD896800239D
:10217000CB56145C64B2A3422AD0097811540120D2
:1021800010BD89680B88145AA4B2A34220D00988D4
:102190001152012010BD89680023CB5E145A24B26D
:1021A000A34215D009881152012010BD89680B681F
:1021B0001458A3420CD009681150012010BD896841
:1021C0000B681458A34203D009681150012010BDB8
:1021D000002010BD6C1300209D0C0020B8020020D0
:1021E00038B51421484330490A5C4118012A04D00B
:1021F000022A56D0032A54D10BE08878C978C2004D
:1022000080182A4A105C814201D1012038BD00208B
:1022100038BDC8780C22401E5043254A1058046827
:10222000C8886A46108008895080487803000AF000
:10223000D6FB0738050C131D242E380020460099C4
:10224000FEF776F92DD1012038BD20460099FEF722
:1022500079F926D2012038BD20460099FEF768F9A9
:102260001FD26000000E1CD0012038BD204600990E
:10227000FEF768F915D8012038BD20460099FEF711
:1022800057F90ED86000000E0BD0012038BD204653
:102290000099FEF74DF904D06000000E01D0012036
:1022A00038BD002038BD0000F00F00209D0C00203C
:1022B000AC020020F8B5002532210D48FDF7C0FF23
:1022C00001240B4E0B4F0DE0601E4000315A0029D7
:1022D00002D0601C01F09AF9A01C1C2800D30A252A
:1022E000641CE4B278788442EED92846F8BD000038
:1022F0003A0800201800002010B506490648FDF7EE
:102300009FFF0648012141700021817008F054FFB1
:1023100010BD000026020000140600201800002056
:10232000FFB583B00025002400270026D3496801AB
:1023300041184B79002B0BD0D1494978002907D09F
:10234000CE490A58CD48CFA11C380AF01DFB06E043
:10235000CA490A58C948CDA11C380AF015FBC7481C
:1023600003991C38FDF7A1FF00280AD06D1CEDB2BF
:102370000A2DDBD30498012806D00498022819D12D
:1023800002E0022007B0F0BD0698012805D00698AB
:10239000022802D0069803280CD10C98002805D0FA
:1023A0000C98012802D00C98022803D1B84905984E
:1023B000884201DD0320E5E70025B0486901405867
:1023C000002805D06D1CEDB20A2DF6D30520D9E703
:1023D000AB48407800283AD05F210398FDF754FFBE
:1023E00007E00399411A491CCEB25F21401CFDF75A
:1023F0004BFF0028F5D1002E19D0039887193846D5
:10240000FDF74CFFC0B2A34A0BE0303909290CD8C4
:102410001318203BDB7F59430919CCB27F1C401EA7
:10242000C0B239780029F0D107E0002405E000248B
:10243000924800216A0110184171002C05D0012733
:102440008E4869010818447101E0002600278B4876
:1024500091A393A11C38039A0AF096FA87490722A0
:102460001C3991480CF0B4FB854A5178002901D100
:10247000082805D0002805D0082803D0042081E7CB
:1024800002207FE7002948D0082846D100247B4855
:1024900019211C38FDF7D4FE002F1BD07748721E7F
:1024A0001C380399FDF7E3FE002C1FD0734A7AA075
:1024B0001C3A009023467DA110460AF065FA641C80
:1024C000E4B26E4907221C3977480CF081FB0828DA
:1024D00013D014E0641CE4B26FA000906748234658
:1024E00072A11C38039A0AF04FFAEAE76348042203
:1024F00069A11C38FDF7F4FEE1E7FF2CC7D3FF2CE0
:1025000001D1082803D0002803D004203AE7022094
:1025100038E7002F01D0641EE4B259484078002803
:1025200012D0002E10D030460AF09CFA53496F01A9
:10253000C8513146FDF784FE50485049C059721EBB
:102540001C39FDF794FE12E00398FDF7A7FEC6B212
:10255000701C0AF087FA49496F01C851711CFDF7D8
:102560006FFE46483246C0590399FDF780FE434846
:1025700069010818047104998171059981600699AF
:1025800001730C9941730D99016164200AF06AFA94
:10259000044664212046FDF753FE46480621008884
:1025A000012348434449002240180521009139493C
:1025B00001900A3120460AF0E7F92046FDF76EFE49
:1025C0002F4B02468033214637480CF08FFD2C48B4
:1025D0008078002817D001F077FE01F0A9FE0546AB
:1025E00001F084FD2B4902462B46C91C20460AF007
:1025F000CBF92046FDF752FE214B0246803321469F
:1026000029480CF073FD0498012803D0049802288F
:1026100015D020E00598FDF75AFF0B461D490246EC
:10262000323120460AF0B0F92046FDF737FE144B50
:102630000246803321461C480CF058FD0BE015483B
:102640004D30FDF72BFE0E4B1249024680334D31C3
:1026500015480CF04BFD0D98FDF720FE084B024687
:10266000803311480D990CF041FD0F480CF02EF904
:1026700020460AF0C5F9002084E600002C12002054
:10268000B802002025735F25640000002573000058
:1026900000007A44484301082E54585400000000BA
:1026A0002573257300000000B817002025735F25EF
:1026B0006425730030000020F040010810B50120AF
:1026C00000F056F810BD000010B50D480068C0437A
:1026D000C00603D4052000F04BF810BD094801687E
:1026E000C943C90503D4022000F042F810BD0068B8
:1026F000C043C006FAD4044801F056FF10BD0000E4
:102700000004024000000240CC1B002010B5154818
:102710000168C943C90303D4032000F029F810BDA0
:102720000168C943C90203D4042000F021F810BD98
:102730000D490968C943C90503D4062000F018F8FB
:1027400010BD0168C943C90403D4084801F02CFF37
:1027500010BD0068C043C001FAD40448383001F00D
:1027600023FF10BD0000024000040240041C0020B2
:1027700070B504461048611E005D0D463822514375
:10278000022804D00D48081801F00EFF70BD0C4857
:10279000081801F009FF0B48A9000A4A4058143AEA
:1027A000002802D053585B1C535051588142EDD33E
:1027B000204609F0A5FB70BDB50100207C1A002061
:1027C000741C0020C411002008B51E484169012274
:1027D00011434161416911400091426902210A435C
:1027E00042614069084000901749184800F034F8E9
:1027F000154916482831383000F02EF81249134890
:102800005031703000F028F80F4910486431A8307A
:1028100000F022F80D480E49E03000F01DF80A499A
:102820000C48143100F042F807490A483C3138306E
:1028300000F03CF8044907487831703000F036F871
:1028400008BD000000100240080002407C1A002071
:102850001C040240CC1B002010B501600021416027
:1028600081608022C2600161416120218161090291
:10287000C16102F027FA10BD70B504460D46294625
:10288000204606F02BFF0021284608F0E9FF2046ED
:1028900001F0A6FC401E8101401803494122411865
:1028A000204603F073FE70BD5410002010B5016087
:1028B00010214160002181608022C260016141617C
:1028C00081619101C16102F0FDF910BD10B50246B0
:1028D0000E48416A002908D0C06D002807D00B4877
:1028E00080304069002805D006E0084C04E0074C21
:1028F000383401E0054C70342146104607F046FAA2
:102900000021204608F0ACFF10BD0000CC1B0020C9
:1029100010B50446206E09F0C7FF216E0020486202
:10292000206610BD10B50160002141608160C1606A
:102930000161416120218161C901C16102F0C2F9D7
:1029400010BD0000F8B504460D461646204601F0BD
:1029500047FC401E3821484309494718394620465C
:1029600006F0BCFE0121384608F07AFF01216920FB
:102970000155296832462831204603F007FEF8BD8C
:10298000741C002010B5046863604368102B04D0E9
:10299000036899600068C26010BD03689A600068AF
:1029A000C16010BD00207047F1B582B001F0C2FADD
:1029B0000190019800210170704C71A1A2787748B4
:1029C00009F0E2FF75490198FDF745FC627A74A1B0
:1029D000724809F0D9FF71490198FDF73CFC0520C8
:1029E00000900123002275A16C4809F0CDFF6B49CE
:1029F0000198FDF730FC79A27BA1684809F0C4FF7B
:102A000066490198FDF727FC7DA280A1634809F083
:102A1000BBFF62490198FDF71EFC83A15F4809F0E6
:102A2000B3FF5E490198FDF716FC0124834D224651
:102A300083A15A4809F0A8FF58490198FDF70BFCFB
:102A4000285D030009F0CBFF0504090E13181C00D4
:102A50007DA1524809F098FF12E07DA14F4809F08E
:102A600093FF0DE080A14D4809F08EFF08E081A1A1
:102A70004A4809F089FF03E085A1484809F084FF2E
:102A800046490198FDF7E7FB641CE4B2052CCED95A
:102A900087A1424809F078FF40490198FDF7DBFB28
:102AA0000124894E601E01463822504305463058A5
:102AB000406800285BD088008449085801F090FBEA
:102AC0000746A819406A01F08BFB0346224680A105
:102AD0003248009709F058FF641CE4B2062CE1D993
:102AE0002E490198FDF7B7FB53A10198FDF7B3FB01
:102AF00083A10198FDF7AFFB0198FDF7CFFB85B2ED
:102B000001241E4EE703B0783A46401E4100844837
:102B1000405A611ECA40104208D0224681A11F4877
:102B200009F032FF1D490198FDF795FB641CE4B2E2
:102B3000052CE8D90198FDF7B1FBA84203D17BA190
:102B40000198FDF788FB3CA10198FDF784FB0298F2
:102B500000280BD00198FDF7A1FB82B20020C043F2
:102B600000903223019902980FF04EFDFEBD2246DF
:102B700070A10A4809F008FFAEE700001800002025
:102B80000A0D2A2A2A204D6F64756C652025642061
:102B9000537461747573202A2A2A0A00680D002074
:102BA0000A0D436F6E6E65637465642076696120FB
:102BB000706F72743A205025640A0D000A0D466940
:102BC000726D776172652076657273696F6E3A20F7
:102BD00025642E25642E2564000000004A756C20B3
:102BE00032382032303139000A0D4669726D776112
:102BF000726520646174653A2020202025730000EE
:102C000032313A34313A3231000000000A0D46695F
:102C1000726D776172652074696D653A202020209D
:102C200025730A0D000000000A0D506F72747320A6
:102C30005374617475733A0A0A0D0000B5010020DF
:102C40005025643A20000000467265650A0D0000B8
:102C5000526563656976696E67206D657373616738
:102C600065730A0D0000000053747265616D696E32
:102C7000670A0D00526563656976696E6720757332
:102C8000657220636F6D6D616E64730A0D000000E4
:102C9000436F6E6E656374656420746F206120629B
:102CA0007574746F6E2F7377697463680A0D000012
:102CB0000A0D444D412053747265616D7320537445
:102CC000617475733A0A0D00741C00209C11002079
:102CD0000A0D53747265616D696E6720444D412021
:102CE00025642069732073747265616D696E672055
:102CF00066726F6D2050256420746F20502564002B
:102D00000A0D546865736520706F72747320617268
:102D1000652072657665727365643A200000000074
:102D20003A08002050256420000000004E6F6E65B8
:102D3000000000000A0D53747265616D696E6720B2
:102D4000444D41202564206973206672656500004A
:102D5000F1B582B022A1294809F016FE2748FDF7F7
:102D60009DFA002782B2FF4332232449009702983C
:102D70000FF04AFC012520E00124681E460020488F
:102D8000621E815B0120C003D04001420FD0234668
:102D90002A461CA1194809F0F7FD1848FDF77EFAEC
:102DA00082B232231549009702980FF02DFC641C63
:102DB000E4B20A2CE3D96D1CEDB217484078854285
:102DC000DAD916A10D4809F0DFFD0C48FDF766FAC7
:102DD00082B232230949009702980FF015FCFEBD1C
:102DE0000A0D546865736520706F72747320617288
:102DF000652072657665727365643A00680D00201F
:102E00003A0800200A0D4D6F64756C65202564201A
:102E10003A20502564000000180000200A0A0D41E5
:102E20006C6C206F7468657220706F7274732061AF
:102E30007265206E6F726D616C0A0D00F1B582B023
:102E400049A14E4809F0A0FD4C48FDF727FA00269D
:102E500082B2F64332234949009602980FF0D4FB20
:102E60000124224646A1454809F08EFD4348FDF75E
:102E700015FA82B232234149009602980FF0C4FB42
:102E8000641CE4B2052CECD9322303223EA1009647
:102E900002980FF0B9FB002551E06A1C3BA13748AE
:102EA00009F072FD3548FDF7F9F9002482B2E443D8
:102EB00032233249009402980FF0A6FB16202F46C9
:102EC000354E4743F05B06214843344905224118FB
:102ED0002A48FDF7CCF932230522284900940298AC
:102EE0000FF092FB3223012223A1009402980FF0ED
:102EF0008BFB01243046A61E3F186000385A00287C
:102F00002BD04307C2085B0F25A11C4809F03CFDEC
:102F10001A48FDF7C3F982B2322318490096029885
:102F20000FF072FB641CE4B2052CE6D932230222B6
:102F30001DA1009602980FF067FB6D1CEDB21B48B7
:102F400040788542A9D30020C0430090322301225B
:102F500017A102980FF058FBFEBD002215A10748EB
:102F600009F012FDD4E700000A0D284D6F64756C5E
:102F7000653A506F7274290909000000680D00203D
:102F800050256409000000000A0A0D004D6F6475A9
:102F90006C652025643A090014060020F040010801
:102FA00025643A25640900000A0D0000180000207D
:102FB0000A0000002564090013490988134A128891
:102FC000002816D0012801D0002070471048002AA0
:102FD00003D0002907D0AB207047814201D10020E7
:102FE000704702207047824201D1022070470020C2
:102FF0007047002903D0002A03D0AB20704700207F
:10300000704702207047000000E0010800F001084E
:10301000EEEE0000F8B501F04FFF274F384600F004
:10302000DDFD264D284600F013FE254C002802D079
:10303000E06980B2F8BD234800F0D0FD284600F0DA
:1030400007FE002802D0E06980B2F8BD1E4E30694C
:10305000022188433061002213463946012001F0E5
:10306000E9FE284600F0F4FD002802D0E06980B2B5
:10307000F8BD3069400840003061144800F0AEFDF2
:10308000284600F0E5FD002802D0E06980B2F8BDD6
:103090000F4800F0A3FD284600F0DAFD0546002D9C
:1030A00002D0E06980B2F8BD30694008400030616C
:1030B00001F0B6FE2846F8BD00E0010850C300004C
:1030C0001805002000E801080020024000F0010877
:1030D00000F8010870B5054C054D206BA84204D0DE
:1030E000FFF798FF002800D1256370BDC07F002046
:1030F000ADDEEFBEF8B50025ED4301F0DDFEBB48C7
:103100000188BB480088BB4E2A0CBB4F002979D0F0
:10311000BA4BC91866D0BA4AD14210D1002819D08A
:103120005942884254D1B14800F058FDB54C204670
:1031300000F08EFD002829D0F06980B2F8BDFFF7BD
:1031400069FFB04800F084FD0028F7D101F068FE67
:103150000020F8BDA54800F041FDAA4C204600F033
:1031600077FD002802D0F06980B2F8BDA64800F0D3
:1031700035FD204600F06CFD002802D0F06980B2D9
:10318000F8BD3869022188433861DFE79E4800F0C6
:1031900025FD204600F05CFD002802D0F06980B2D9
:1031A000F8BD3969022081433961002213469049F4
:1031B000012001F03FFE204600F04AFD002802D029
:1031C000F06980B2F8BD3869400840003861BDE759
:1031D000FFF720FF8B4800F03BFD0028B6D0F069D8
:1031E00080B2F8BD00280ED090427ED1804800F019
:1031F000F5FC844C204600F02BFD002852D0F069ED
:1032000080B2F8BD7BE001247848C088A04200D19C
:1032100025B2AC4212D07D49204600F083F9012846
:103220000CD07A480188204600F0A0F9009075483B
:1032300000F00EFD002801D00098E2E7641CA4B263
:10324000012080028442DFD9002213466749012011
:1032500001F0F0FD6B4C204600F0FAFC002802D093
:10326000F06980B2CDE738694008400038616048B5
:1032700000F0B4FC204600F0EBFC002802D0F0691E
:1032800080B2BEE7624800F0A9FC204600F0E0FCF6
:10329000002802D0F06980B2B3E738690221884380
:1032A000386153E75A4800F099FC204600F0D0FC02
:1032B000002802D0F06980B2A3E739690220814377
:1032C0003961002213464949012001F0B3FD20462F
:1032D00000F0BEFC002803D0F06980B291E704E062
:1032E000386940084000386130E7FFF793FE4548F1
:1032F00000F0AEFC0028D4D0F06980B281E700284D
:103300000DD0904223D13A4800F068FC3D4C204655
:1033100000F09EFC00280AD0F06980B271E7FFF748
:1033200079FE384800F094FC002886D10EE7384832
:1033300000F054FC204600F08BFC002802D0F0691D
:1033400080B25EE73869022188433861FEE60124D5
:103350002748C088A04200D125B2AC4212D02B49E8
:10336000204600F0DFF801280CD0284801882046CC
:1033700000F0FCF80090234800F06AFC002801D01F
:1033800000983EE7641CA4B2012080028442DFD989
:10339000002213461649012001F04CFD194C20462D
:1033A00000F056FC002802D0F06980B229E73869A5
:1033B0004008400038610D4800F010FC204600F045
:1033C00047FC002802D0F06980B21AE70E4800F0EE
:1033D00005FC204600F03CFC002802D0F06980B2D9
:1033E0000FE73969022081433961AFE600E0010847
:1033F00000F0010818050020002002401211FFFF14
:10340000EFEEFFFF50C3000000E801087602002045
:1034100000F80108F3B581B00C4601F04DFD002025
:10342000FFF7CAFD3849394D022803D0002803D0E0
:10343000AB20FEBD0F4601E02F460D46344A002367
:103440003946012001F0F6FC324800F001FC324E12
:10345000002802D0F06980B2FEBD304801694908F9
:10346000490001612146019800F080F80028F3D15D
:103470000124019884420CD02949204600F052F8DA
:10348000012806D026480188204600F06FF8002861
:10349000E2D1641CA4B2012080028442E9D928460A
:1034A00000F09CFB1B4C204600F0D2FB002802D011
:1034B000F06980B2FEBD0120C002281800F08EFB2A
:1034C000204600F0C5FB002802D0F06980B2FEBDA6
:1034D000124D28690221884328610022134639468B
:1034E000012001F0A7FC204600F0B2FB0446002CAE
:1034F00002D0F06980B2FEBD286940084000286112
:1035000001F08EFC2046FEBD00E0010800F001083D
:10351000EEEE000050C3000018050020002002401D
:103520007602002070B505460E4601240020FFF704
:1035300043FDAB2808D00C4AC1028918801CC00288
:10354000921E8218891C0AE0AB2070BD1088A84228
:1035500004D1403AD08F3080002402E0121F8A420A
:10356000F4D8204670BD000000E00108F8B505461B
:103570000E4601F0A1FC0120FFF71EFDAB2807D08D
:103580001E4AC1028C18801CC002911E411805E021
:10359000AB20F8BD2068401C06D0241D8C42F9D316
:1035A00001F03EFC8020F8BD324600232146012078
:1035B00001F040FC124800F04BFB124E002802D0F4
:1035C000F06980B2F8BD104F38694008400038619A
:1035D0002A460023A11C012001F02CFC084800F021
:1035E00037FB002802D0F06980B2F8BD3869400886
:1035F00040003861F06980B2F8BD000000E00108C9
:1036000050C30000180500200020024070B5054698
:103610000E4601F051FC31462846FFF7A7FF04464D
:10362000802C04D131462846FFF7F4FE044601F011
:10363000F7FB204670BD0000FEB50020019000247D
:1036400000F078FC00901D4F31E014206043C51954
:10365000287C002829D0E0B2FEF7C2FD002824D043
:103660001749202088719926B60017E01348324682
:103670003238009900F092FC0028F7D10098FCF74E
:103680000DFE01460098FCF7DBFD0C483238FCF7D4
:1036900005FE014609483238FCF7D2FD0749E868C3
:1036A000323904F057FB0028E0D1641CA4B205486D
:1036B00000788442C9D30198FEBD0000F00F0020BD
:1036C000B80D002058020020F0B587B00026002079
:1036D0000190F94D0120A8700124687A844205D038
:1036E000204600F03DFE012108F048FC641CE4B2D5
:1036F000052CF2D9F04C607A00F014FA0220207008
:1037000001240125681E8700EC48C05B002817D003
:10371000641CEB49E4B24C70E74844700020087028
:1037200003200022009010231146284607F016FEC1
:10373000E2482102C25D8918C1530A200CF0A4FEA0
:103740006D1CEDB2052DDDD9DB48018BDB48DC308B
:1037500001800120411ED94A8900525A8C46002A14
:1037600018D0110AD2B2CB00D44D13434700DC3538
:10377000EB536346DC3D5B19491E16256943CF4D6B
:103780005B88DC356B52CC4B49199B78DB000343DB
:1037900052008B52401CC0B20528DBD902251620EE
:1037A000274647430FE0C5493A46DC31C448FCF799
:1037B0002EFD3A461121284607F030FF3C200CF040
:1037C00063FE6D1CEDB2A542EDD9A1E00194022586
:1037D0009BE00120BA4901220B18203BDA77401CFC
:1037E000C0B20A28F7D9B649002088720B220E21F0
:1037F000284607F013FF0A200CF046FE00220C2199
:10380000284607F00BFF64200CF03EFE0127781ECF
:103810008100AA481430405A020A002818D0002A11
:1038200016D1641CA64AE4B25470A34B5C70230208
:10383000C0B21818A14B1433585201201070977061
:1038400003221021284607F0E9FE0A200CF01CFE96
:103850007F1CFFB20A2FDAD90120411E974B890045
:10386000143306915A5A002A2CD0110AD2B2944627
:10387000012927D06A1E16235A43904BDC33D318F4
:10388000420005939B5A002B04D1CB0067463B4373
:10389000059FBB52491E16225143884ADC328B18C1
:1038A0006246520004939B5A002B0BD1834F069B18
:1038B0001437DB195F88814BDC335F52E900049BCE
:1038C00001439952401CC0B20A28C6D97B4828211E
:1038D0001430FCF7B5FC022720461621484303901C
:1038E0000FE076497648DC31039AFCF790FC112111
:1038F0003846039A07F092FE3C200CF0C5FD7F1C71
:10390000FFB2A742EDD96D1CEDB2A54200D860E729
:103910000198A04200D059E76748407A00F002F9C8
:103920000120664B411E8900595A0A0A002902D01B
:10393000002A00D10526401CC0B20528F2D9022574
:103940005E4F143717E000220C21284607F066FE70
:1039500064200CF099FD0120411E8900795A0A0A61
:10396000002902D0002A00D10526401CC0B20A2836
:10397000F2D96D1CEDB2A542E5D9002E71D101201E
:10398000504D411E01222B88D203CA4093432B8005
:10399000401CC0B20528F3D970E00120474A611EDF
:1039A00016230291DC32594389188C460299444D02
:1039B000490062464300D25A002A44D053051B0EE8
:1039C0005207520F5B1E5F003E4B521EDB5B01270E
:1039D000FF03D7403B420DD101222B18203BDA7761
:1039E000384A0123575A421EDB03D340354A1F434E
:1039F00057520CE000222B18203BDA77314A012382
:103A0000575A421EDB03D3402E4A9F435752401C55
:103A1000C0B20A28CDD92146012000F0BDF92948BD
:103A2000323000192038C17F264863300F5C2046B1
:103A3000394600F0B1F9A74214D028182038C07FC9
:103A400001280FD010E000222B18203BDA771D4A06
:103A50000123575A421EDB03D3401A4A9F43575251
:103A6000D5E71CE00120A8720B220E21204607F0AA
:103A7000D5FD0A200CF008FD0298C4B2022C8CD2AD
:103A800001240D4D687A844205D0204600F068FC80
:103A9000002108F073FA641CE4B2052CF2D9002E60
:103AA0002FD164200CF0F0FC0749202088710224FB
:103AB000044F014D323721E0180000203805002066
:103AC000580B00203A080020B80D002000220121E8
:103AD000204607F0A3FD38192038C07FFF212D3183
:103AE00048430CF0D1FCE879002802D0022802D02B
:103AF00002E0002600E00226641CE4B268788442FA
:103B0000E4D9002E0BD107F057FB07F003FB64202C
:103B10000CF0BAFC00221521FF2007F07FFD304693
:103B200007B0F0BDFEB505460020019001240D4F01
:103B30000D4EAC420FD0388B010A31707070B470EA
:103B40000320002200900A231146204607F006FCBD
:103B50000A200CF099FC641CE4B2052CE9D9019808
:103B6000FEBD000018000020580B002000B5002208
:103B700000F002F800BD000030B5054601200D4BF5
:103B80005C7A012C15D8587A00241C54587A80008D
:103B9000C01845605D7A184608302A54587A421C8D
:103BA0005A72303008703A2048702F208870CC70DC
:103BB000002030BD386B002006490020C86106484F
:103BC000016904221143016101694022114301612D
:103BD000704700001805002000200240064A00211E
:103BE000D16106490A6902231A430A6148610869DA
:103BF0004022104308617047180500200020024051
:103C000010B5054B0022DA61044A136901242343ED
:103C10001361018010BD0000180500200020024043
:103C20000949C868C206094803D5C26902231A4374
:103C3000C261CA68520703D5C26901231A43C2612F
:103C40001420C860704700000020024018050020C2
:103C500070B5044601F00EFA0546104E0AE0601CED
:103C600008D0002C04D001F005FA401BA04201D975
:103C7000032070BDF068C007F1D1F068800601D55F
:103C80002020F060F068C00602D4F068400703D539
:103C9000FFF7C6FF012070BD002070BD002002406C
:103CA000FEB504460020009000250026384F7878A5
:103CB00008F0D8FE002305E0435536496A008B52D0
:103CC0006D1CEDB2324949788D42F5D3761C01194D
:103CD0002039CE77761CF3B20121641EA446162249
:103CE00054432C4AA032A218964672464C00125BEE
:103CF000002A0DD064466400264D4E1E01272D5B20
:103D0000B740244E3D433553D2081218203AD3779A
:103D1000491CC9B20529E8D900245B1CDBB200228A
:103D20002BE0855C591E8D4225D10121194E1625A7
:103D3000A0365543AD190195019D4E00AD5B002D98
:103D400015D0ED082D18203DAC46ED7F002D0ED18D
:103D50005700104DBE46ED5B4E1E0127B7403D4358
:103D60000C4E7746F5536546EB77641CE4B2491C6C
:103D7000C9B20529E0D9521CD2B2054949788A4214
:103D8000CFD3002CC8D1009C08F03AFE2046FEBDDF
:103D90001800002074050020F0B58FB007460E46CD
:103DA00034216846FCF74CFA0024002519215148BB
:103DB000FCF746FA4F4900203239C9192039C87733
:103DC0004C491939C9192039C8770120791E1622A2
:103DD0005143494A89180E91464932398919203987
:103DE0000D910E994300C95A00290AD0C908B14261
:103DF00007D10D9A0121D1773E490E70C0B20FB0A4
:103E0000F0BD401C0628ECDD01203C494A780EE05C
:103E1000B8420BD03749FF23323909182039CB7704
:103E2000344B0021193B1B18203BD977401C904292
:103E3000EEDD36E02F48694632380CF0B1FA401C0E
:103E4000C4B2B44232D06946012009192039C8777A
:103E5000611E16225143284A89188C466146420049
:103E6000895A002919D04905090E6A465218203A84
:103E7000D27F002A11D11F4B323B1A19203AD27F30
:103E8000521CD2B25B18203BDF7F974205D9DA770C
:103E9000184A193A51182039CC77401CC0B206286C
:103EA000DCD9684605F0BCFA0028C3D0114A114697
:103EB000193904E02B466D1CEDB2D45404460819A0
:103EC0002038C07F0028F5D101200A4A521E0E99E1
:103ED0004300C95A002907D0CB080D99C97F895CD6
:103EE0008B4201D1C0B28AE7401C0628EFDD0020DA
:103EF00085E700009E08002014060020180000201E
:103F0000F8B5044609480026C670611E38225143A0
:103F1000074A555C80782946FFF73EFF00232A4672
:103F20001946009407F01AFA3046F8BD1800002030
:103F3000080A0020004870474C1E002030B50023BE
:103F400000250024146025E0401C00240457002CA8
:103F500003D0202CF8D100E0401C00240457002C92
:103F600001D0202CF8D00478002C15D05B1C8B429B
:103F700010D1054603E01168491C1160401C002166
:103F80004156002901D02029F5D11068002803D11D
:103F9000002501E08B42D8D3284630BDF7B5064650
:103FA00001242A4DA86800281AD128461430A86098
:103FB00013E0006807683846FCF770F90246B0560F
:103FC000202801D0002805D139463046FCF7A5F954
:103FD000002817D0A8684068A860A8680028E8D121
:103FE000A8680027002801D0002C1DD0002824D06C
:103FF0000068324683680299019898470446200079
:1040000019D020E0A8680C21006841560029E7DBA0
:1040100030460CF071FE0146A8680C2200688256FA
:104020009142DDD00024DBE70949029A0198FCF7B0
:104030001EF9AF6007E0AF6005E00649029A0198FB
:10404000FCF715F900242046FEBD000044030020C3
:10405000286D0108806D010870B50546002D12D04D
:1040600008200FF0B9FF0446002C0ED00EF0C6F960
:10407000256000206060064841684C6044600EF096
:10408000C9F9012070BD72B6FEE772B6FEE7000006
:104090004403002008B514484269012149040A4339
:1040A000426142690A400092426949000A43426102
:1040B00042690A400092426949000A4342614269EA
:1040C0000A400092426949000A43426142690A403B
:1040D0000092426989000A434261406908400090A9
:1040E00002F01AFC08BD0000001002401CB51E20A2
:1040F00008F0B8FC04461E212046FCF7A1F8084948
:10410000088B4A7D00920190087D8B7D401E0549F9
:1041100080000A580449204608F036FC20461CBDA1
:10412000B80D00201C02002014430108F8B5054614
:10413000002426A12846FCF7B8F8254E00280AD00E
:1041400024A12846FCF7B1F8002806D028782328B7
:1041500005D0214F22E0B078F8BDFF20F8BD681CE3
:10416000FCF756F9C0B2002802D071788842F5D920
:10417000B178884201D10846F8BD6620F8BD0B2011
:104180006043C1192846FCF790F8002804D128782C
:10419000002801D02046F8BD641CE4B27078844247
:1041A000EDD300240D4E0B20604381192846FCF707
:1041B0007CF8002805D0641CE4B20A2CF3D36420F8
:1041C000F8BD2002FE3000B2F8BD00006D650000B1
:1041D00018000020616C6C00B7080020A6050020C4
:1041E00000680D49884201D1012070470B4988427F
:1041F00001D1022070470A49884201D1032070474B
:104200000849884201D1042070470749884201D1FA
:104210000520704700207047004C004000440040DB
:10422000004800400038014000500040F0B5059DB6
:104230001C46002600F094F81D4F0923DB06B84207
:1042400007D10B60012040021080236040002880CD
:104250002BE0184FB84206D10B6004201080236079
:104260000820288021E0144FB84208D11348086084
:1042700001218902118020604800288015E0104F3C
:10428000B84206D10B6001201080236002202880F4
:104290000BE00C4B984207D10848086008211180B8
:1042A00020601020288000E0FF263046F0BD00008E
:1042B0004C180020BC1800202C19002000040048D5
:1042C0009C1900200C1A002000B587B0002201A91B
:1042D000154801F0B9FB002206A9134801F092FB32
:1042E0006946087BC1091148491CC1740299C90378
:1042F000090CC1816946897901746946497941741B
:104300006946097981746946897E41756946497EA5
:1043100081756946097E01756946C97E7D22120153
:104320008918018307B000BDC40E0020B80D00201D
:1043300038B50A2008F096FB04460A212046FBF710
:104340007FFF0549087C00904B7C8A7C034920460E
:1043500008F01AFB204638BDB80D0020264301089E
:1043600000B5030008F03BFB060E0406080A0C0E1D
:10437000054800BD054800BD054800BD054800BD15
:10438000054800BD002000BD9C190020BC1800207D
:104390002C1900204C1800200C1A002000B50179BF
:1043A000002907D0C268816800F010F8002809D001
:1043B000012000BD0268044951610068816818222B
:1043C00091438160002000BDB71DC10430B51F239B
:1043D00001252C469C400C4202D15B1E5C1CF8D18E
:1043E000002A11D0082A0BD0102A05D0182A0BD188
:1043F000072B09D3012030BD082B05D3012030BD88
:10440000102B01D3012030BD036859610068816819
:104410001823994311438160002030BD70B50446D4
:1044200000200023257F012D0BD0012525770226B2
:104430006677266A012E10D0022E13D0032E15D1D6
:1044400006E0022070BD83002668CB583360401C14
:104450009042F8D32068036808E02046FDF7ECFBA3
:10446000034603E02046FDF7CDFB034665770020B9
:104470002077184670BDF8B5044600200023257F3C
:10448000012D0FD001252577022666772668B768AB
:104490002F43B760266A012E10D0022E13D0032EB0
:1044A00015D106E00220F8BD83002668CB583360A2
:1044B000401C9042F8D32068036808E02046FDF7CE
:1044C000BBFB034603E02046FDF79CFB03466577F4
:1044D000002020771846F8BD10B50446002C03D004
:1044E000607F002802D006E0012010BD0020207768
:1044F000204600F027F8022060772046FFF74EFFA5
:10450000002801D0012010BD6079002814D0216856
:1045100020690861206881686022914362691143C3
:1045200081602068816880229143A2691143816083
:1045300001206077002010BD00202168C043086181
:10454000E8E7000008B50448426940210A43426197
:1045500040690840009008BD00100240F8B50446CC
:104560002068016849084900016000F083FD0646A3
:104570000027254620350EE000F07CFD811B7D20C4
:10458000C000814207D9606B20210843606303208B
:1045900068702F70F8BD20680068C007ECD101205A
:1045A00068702F700020F8BDF8B50446F749F74D44
:1045B000F64EF64F2068CB14783D643E503F88425B
:1045C0003FD9F3490A68A84201D1082137E0B04237
:1045D00001D1802133E0B84201D119462FE0EB49E7
:1045E0003C39884202D10121C90328E0E749283932
:1045F000884202D10121C90421E0E44914398842EA
:1046000002D10121C9051AE0E1490831884201D1EE
:10461000082114E0DE491C31884201D180210EE0DE
:10462000DB493031884201D1194608E0D84944318C
:10463000884202D10121C90301E00121C9040A40D5
:1046400044E0D24980390A68A84201D108213CE0FF
:10465000B04201D1802138E0B84201D1194634E09E
:10466000CA493C39884202D10121C9032DE0C7491A
:104670002839884202D10121C90426E0C3491439EE
:10468000884202D10121C9051FE0C049884201D1F9
:1046900001051AE0BE490831884201D1082114E021
:1046A000BB491C31884201D180210EE0B84930312C
:1046B000884201D1194608E0B5494431884202D107
:1046C0000121C90301E00121C9040A40214620312A
:1046D0000091002A70D00168C94309076CD40168B1
:1046E000082291430160A949206888423ED9A84226
:1046F00001D1082037E0B04201D1802033E0B84238
:1047000001D118462FE0A1493C39884202D101204D
:10471000C00328E09D492839884202D10120C00405
:1047200021E09A491439884202D10120C0051AE0DB
:1047300097490831884201D1082014E094491C317E
:10474000884201D180200EE091493031884201D168
:10475000184608E08E494431884202D10120C00346
:1047600001E00120C0048A49486044E0A84201D128
:1047700008203DE0B04201D1802039E0B84201D1AB
:10478000184635E0814A3C3A904202D10120C003EC
:104790002EE07E4A283A904202D10120C00427E050
:1047A0007A4A143A904202D10120C00520E08842A2
:1047B00003D10120C0061BE02CE075490831884276
:1047C00001D1082014E072491C31884201D18020B7
:1047D0000EE06F493031884201D1184608E06C493B
:1047E0004431884202D10120C00301E00120C0040D
:1047F000664980394860606B012108436063009915
:1048000004204870009900200870216B002901D015
:10481000204688475D4920680B1588423FD95C498E
:104820000A68A84201D1042137E0B04201D14021F9
:1048300033E0B84201D119462FE054493C3988424F
:1048400002D10121890328E050492839884202D148
:104850000121890421E04D491439884202D1012106
:1048600089051AE04A490831884201D1042114E03F
:1048700047491C31884201D140210EE04449303182
:10488000884201D1194608E041494431884202D1A9
:104890000121890301E0012189040A4044E03B49E8
:1048A00080390A68A84201D104213CE0B04201D11C
:1048B000402138E0B84201D1194634E033493C394F
:1048C000884202D1012189032DE0304928398842EC
:1048D00002D10121890426E02C491439884202D1F1
:1048E000012189051FE02949884201D1C1041AE04C
:1048F00027490831884201D1042114E024491C31A0
:10490000884201D140210EE021493031884201D155
:10491000194608E01E494431884202D10121890329
:1049200001E0012189040A40002A71D00168C943CD
:1049300049076DD40168890603D4016804229143B4
:10494000016012492068884242D9A84201D104205E
:104950003AE0B04201D1402036E0B84201D11846D9
:1049600032E00A493C39884202D1012080032BE021
:1049700006492839884202D10120800424E00349F5
:104980001439884206D1012080051DE080000240D4
:1049900000040240C949884201D1042014E0C749FB
:1049A0001431884201D140200EE0C44928318842A8
:1049B00001D1184608E0C1493C31884202D10120AA
:1049C000800301E001208004BC490839486042E0CE
:1049D000A84201D104203BE0B04201D1402037E0A1
:1049E000B84201D1184633E0B54A904202D10120C5
:1049F00080032DE0B24A1432904202D1012080049B
:104A000026E0AF4A2832904203D1012080051FE002
:104A100029E0884202D10120800619E0A749884296
:104A200001D1042014E0A5491431884201D140206D
:104A30000EE0A2492831884201D1184608E09F497A
:104A40003C31884202D10120800301E00120800432
:104A50009B4944394860009811214170E16A00295E
:104A600001D020468847964A20683C3290423FD980
:104A7000924908390B68A84201D1022136E0B042C0
:104A800001D1202132E0B84202D1012149022DE0BA
:104A90008B49884202D10121490327E0884914311A
:104AA000884202D10121490420E085492831884209
:104AB00002D10121490519E08049884201D1022132
:104AC00014E07E491431884201D120210EE07B4957
:104AD0002831884201D1411508E078493C318842AB
:104AE00002D10121490301E0012149040B4043E0C7
:104AF000734944390B68A84201D102213BE0B0421E
:104B000001D1202137E0B84202D10121490232E02F
:104B10006B49884202D1012149032CE068491431D4
:104B2000884202D10121490425E0654928318842A3
:104B300002D1012149051EE0904202D1012149061E
:104B400019E05E49884201D1022114E05B49143129
:104B5000884201D120210EE058492831884201D1F4
:104B6000411508E055493C31884202D101214903F1
:104B700001E0012149040B40002B72D00168C943B8
:104B800089076ED40168890603D40168022399431A
:104B90000160206890423ED9A84201D1022036E04F
:104BA000B04201D1202032E0B84202D101204002BF
:104BB0002DE04349884202D10120400327E04049CB
:104BC0001431884202D10120400420E03C492831C0
:104BD000884202D10120400519E03849884201D1BC
:104BE000022014E035491431884201D120200EE022
:104BF00032492831884201D1401508E02F493C3123
:104C0000884202D10120400301E0012040042B49E9
:104C10000839486043E0A84201D102203CE0B0429C
:104C200001D1202038E0B84202D10120400233E017
:104C30002349884202D1012040032DE0204914314C
:104C4000884202D10120400426E01D4928318842D3
:104C500002D1012040051FE0904203D1012040060F
:104C60001AE029E01549884201D1022014E01349D5
:104C70001431884201D120200EE0104928318842A9
:104C800001D1401508E00D493C31884202D1012094
:104C9000400301E001204004094944394860606B49
:104CA0006063009901204870009900200870A16A93
:104CB000002901D020468847F8BD000008040240C2
:104CC00044000240F0B5002806D0014620314A7861
:104CD0000025002A02D002E00120F0BD0D70022262
:104CE0004A70026814680B4B1C4086684368076969
:104CF0003343C6683E43334346693343866933438F
:104D0000C669334323431360456301204870002084
:104D1000F0BD00000FC0FFFFF8B50446204620306C
:104D20000578012D1ED001250570022646702068E9
:104D30000768AF4307602046FDF724FE206801683E
:104D4000314301602068016804221143016020683A
:104D5000016808221143016020680168294301604D
:104D60000020F8BD0220F8BD31B500F083F90446FB
:104D700000F080F90099001B8842F9D338BD00008B
:104D8000F8B505460F4601262248017E01290BD0C1
:104D9000012101762868204C012807D02046FEF723
:104DA00057FF002813D030E00220F8BD2046FEF760
:104DB0004FFF002829D1FEF7FFFE2046FEF748FFEF
:104DC0000646164801690422914301611DE0002056
:104DD000C04338606C6812E02046FEF7FFFE0E48C4
:104DE000FEF736FF06460D48016902229143016134
:104DF000300001D03C6008E00120C0022418A968FE
:104E00006868C9024018A042E6D80248002101762D
:104E10003046F8BD1805002050C3000000200240B5
:104E2000034801698022114301610020704700009E
:104E300000200240F0B51FB4074615461E46002468
:104E40001A48017E012907D0012101761848FEF792
:104E5000FFFE002803D025E0022005B0F0BD012FA1
:104E600003D0022F03D004271AE0012718E00227FD
:104E700016E0220128463146FBF7A4F981B20198D9
:104E800062001018FEF7BCFE0948FEF7E1FE094972
:104E90000A69520852000A61002803D1641CE4B276
:104EA000BC42E6D3014900220A76D6E71805002065
:104EB00050C300000020024005480169090605D5DD
:104EC0000449416004494160002070470120704757
:104ED0000020024023016745AB89EFCDF8B50022E1
:104EE00093E001249440A4462340002B7ED04C68DC
:104EF000022C01D0122C0CD1D408A40027183D6A32
:104F00005407E40E0F26A640B5430E69A6402E4373
:104F10003E62076855000324AC40A7430E79B607EC
:104F2000B60FAE403E4306604E68012E05D0022EFD
:104F300003D0112E01D0122E0ED18768A743CE6860
:104F4000AE403E43866047686646B7430E79F60634
:104F5000F60F96403E434660C668A6438C68AC4058
:104F60003443C4604C68E4004ED52B4CA56901263F
:104F70003543A561A469344000949508274CAD00E1
:104F80002F19BD689407240F0F26A640B5430926A4
:104F9000F606B04201D1002614E0214EB04201D104
:104FA00001260FE01F4EB04201D102260AE01E4E3C
:104FB000B04201D1032605E01C4EB04201D10426C7
:104FC00000E00526A6402E43BE60194D2C689C4388
:104FD0004E68F60300D51C432C606C689C434E68F9
:104FE000B60300D51C436C60AC6800E00CE09C4349
:104FF0004E68F60200D51C43AC60EC689C434E68DA
:10500000B60200D51C43EC60521C0B681C46D44011
:1050100000D066E7F8BD000000100240000001402B
:105020000004004800080048000C00480010004838
:10503000000401400069084201D0012070470020AF
:10504000704742694A4042617047002A01D081613D
:105050007047816270470000024800680005000D3B
:10506000704700000058014001480068000C70477C
:1050700000580140014800687047000014000020FB
:1050800002480168491C01607047000014000020BC
:1050900010B506480168102211430160002000F09D
:1050A00007F800F016F8002010BD000000200240B4
:1050B00010B5044600F0C8F97D21C900FBF76CF873
:1050C00001F02EF800222146501E00F017F80020B3
:1050D00010BD7047C106C90E012088400149086013
:1050E0007047000080E100E0C106C90E0120884041
:1050F000014908607047000000E100E010B502F0CF
:105100002BFD10BD024801688215114301607047F4
:1051100000700040F8B5044620683C4DC00344D5FB
:10512000296A0320000262680140024091423CD09B
:10513000E86929040843E861E86908400090344FB1
:105140003868091508433860FFF794FF064606E003
:10515000FFF790FF801B642801D90320F8BD386851
:10516000C005F5D5286A03273F02B8432A6A012102
:1051700009040A432A622A6A8A432A62286280074B
:105180000ED5FFF777FF064607E0FFF773FF811B99
:105190002048814201D90320F8BD286A8007F4D550
:1051A000286A6168B843084328622078C00705D0A0
:1051B000286BA16880088000084328632078800756
:1051C00006D5286B032109048843E1680843286356
:1051D0002068400306D5286B032189048843216990
:1051E000084328632078800605D5286B1021884362
:1051F0006169084328632088400505D5286B402154
:105200008843A169084328630020F8BD00100240CC
:105210000070004088130000F8B504460F46874828
:105220000068F021C007C00F854EB8427DD2834888
:105230000268520852003A4302600068C007C00F7B
:10524000B84201D00120F8BD2078800704D57068ED
:105250008843A168084370602078C00739D060682F
:10526000012808D002280BD003280ED03168890706
:1052700010D40120F8BD316889030BD40120F8BD9A
:105280003168890106D40120F8BD716BC90301D4CE
:105290000120F8BD71688908890001437160FFF73A
:1052A000E9FE05466068012805D0022812D00328CF
:1052B0001FD0644F34E0634F06E0FFF7DBFE401B76
:1052C000B84201D90320F8BD70680007800F01289B
:1052D000F3D1A3E05B4F06E0FFF7CCFE401BB842E2
:1052E00001D90320F8BD70680007800F0228F3D1B0
:1052F00094E0544F06E0FFF7BDFE401BB84201D9D1
:105300000320F8BD70680007800F0328F3D185E003
:105310000BE0FFF7AFFE401BB84201D90320F8BDF8
:1053200070680007800FF4D178E02078800704D5FA
:1053300070688843A168084370602078C00760D017
:105340006068012808D002280BD003280ED03168ED
:10535000890710D40120F8BD316889030BD40120DE
:10536000F8BD3168890106D40120F8BD716BC9030D
:1053700001D40120F8BD716889088900014371607A
:10538000FFF778FE0546606801280CD0022818D087
:10539000032824D031E0FFF76DFE411B29488142EC
:1053A00001D90320F8BD70680007800F0128F2D1F1
:1053B00027E0FFF75FFE411B2248814201D903200D
:1053C000F8BD70680007800F0228F2D119E0FFF7DE
:1053D00051FE411B1B48814201D90320F8BD706872
:1053E0000007800F0328F2D10BE0FFF743FE411BBB
:1053F0001448814201D90320F8BD70680007800F6E
:10540000F3D10E480168490849003943016000683A
:10541000C007C00FB84201D00120F8BD2078400776
:1054200006D57068072109028843E1680843706067
:105430000020FFF73DFE0020F8BD000000200240E4
:10544000001002408813000010B500F021F8054953
:105450004968054A0906090F515CC84003490860BC
:1054600010BD000000100240E040010800000020D4
:1054700010B5FFF7E9FF04494968044A4905490F97
:10548000515CC84010BD000000100240E04001081F
:1054900030B589B01CA001460EC9C06805AC0EC469
:1054A00008901DA001460EC9C06801AC0EC404904E
:1054B0001D4D6A680C20114601401C48042905D086
:1054C0001B4B082904D00C2900D1184609B030BD67
:1054D0009102090F05AC645CE96A01AD0907090F87
:1054E000695CD203920F022A05D0032A07D0FAF78B
:1054F00053FE6043EAE7FAF74FFE6043E6E71846DB
:10550000FAF74AFE6043E1E70203040506070809CB
:105510000A0B0C0D0E0F10100102030405060708FC
:10552000090A0B0C0D0E0F100010024000127A0039
:10553000006CDC02F8B504462078FA4DC00775D03F
:1055400068680007800F012816D068680007800F80
:10555000022804D16868C003800F02280CD0286894
:1055600001263604B04328602968B00081432960D1
:10557000FFF780FD07460EE02868800356D5606877
:10558000002853D10120F8BDFFF774FDC01B64282B
:1055900001D90320F8BD28688003F5D4606801288C
:1055A00013D0002815D005281DD029682846B143FE
:1055B000296001680122920491430160606800281B
:1055C00026D0FFF757FD06461EE0296831432960C3
:1055D000F4E729682846B14329600268012189045B
:1055E0008A430260EAE72A682846012189040A43BF
:1055F0002A60016831430160E0E7FFF73BFD801B53
:10560000642801D90320F8BD28688003F5D50DE092
:10561000FFF730FD064606E0FFF72CFD801B6428EF
:1056200001D90320F8BD28688003F5D4207801262D
:10563000800700284BDA68680007800F13D068687D
:105640000007800F022804D16868C003800F01287A
:1056500009D0E068002828D0286830432860FFF788
:1056600009FD074616E02868800704D5E068012890
:1056700001D00120F8BD2868F82188432169C900BC
:105680000843286023E0FFF7F5FCC01B642801D91C
:105690000320F8BD28688007F5D52868F8218843DD
:1056A0002169C9000843286011E0286840084000CB
:1056B0002860FFF7DFFC074606E0FFF7DBFCC01BB6
:1056C000642801D90320F8BD28688007F5D4207824
:1056D000000726D5206A002811D0686A3043686226
:1056E000FFF7C8FC074606E0FFF7C4FCC01B6428B0
:1056F00001D90320F8BD686A8007F5D511E0686A12
:10570000400840006862FFF7B5FC074606E0FFF777
:10571000B1FCC01B642801D90320F8BD686A80076A
:10572000F5D4207840077BD5E969012000070143C3
:10573000E961E969014000917B48016882151143E4
:105740000160FFF797FC074606E0FFF793FCC01BDC
:10575000642801D90320F8BD73480068C005F4D55A
:10576000286A400840002862296A0420814329628F
:10577000FFF780FC074607E0FFF77CFCC11B6B4886
:10578000814201D90320F8BD286A8007F4D4A068BB
:10579000012813D0002815D005281DD0296A2846D5
:1057A000490849002962026A04218A430262A0680A
:1057B000002826D0FFF75EFC07461EE0296A314329
:1057C0002962F4E7296A2846490849002962026AE1
:1057D00004218A430262EAE7296A28460422114327
:1057E0002962016A31430162E1E7FFF743FCC11B13
:1057F0004E48814201D90320F8BD286A8007F4D5BC
:105800000EE0FFF737FC074607E0FFF733FCC11B4C
:105810004648814201D90320F8BD286A8007F4D4A4
:105820002078C00643D5606901280DD0401D28D0DE
:10583000686B042108436863686B40084000686334
:10584000FFF718FC06462FE0686B042108436863E5
:10585000686B30436863FFF70DFC064606E0FFF710
:1058600009FC801B642801D90320F8BD686B800700
:10587000F5D5686BF8218843A169C90008436863BE
:1058800015E0686B042188436863686BF8218843DE
:10589000A169C9000843686309E0FFF7EBFB801BBF
:1058A000642801D90320F8BD686B8007F5D42078FF
:1058B000800647D568680007800F032815D0686800
:1058C0000007800F022804D16868C003800F0328F6
:1058D0000BD0E06900281BD0686B01210904084344
:1058E0006863FFF7C7FB06460EE0686BC00329D567
:1058F000E069012826D00120F8BDFFF7BBFB801B23
:10590000642801D90320F8BD686BC003F5D519E000
:10591000686B0121090488436863FFF7ABFB064607
:105920000DE00000001002400070004088130000ED
:10593000FFF7A0FB801B642801D90320F8BD686B2A
:10594000C003F5D4606A00284BD069680907890F45
:10595000022948D001273F06022806D02868B8430C
:105960002860FFF787FB044638E02868B8432860C2
:10597000FFF780FB064606E0FFF77CFB801B6428F0
:1059800001D90320F8BD28688001F5D4E86A216BAD
:10599000000900010843E862A16AE06A08436968F7
:1059A0007B22D2039143084368602868384328600B
:1059B000FFF760FB044606E0FFF75CFB001B642872
:1059C00001D90320F8BD28688001F5D509E0FFF76B
:1059D00051FB001B642801D90320F8BD2868800111
:1059E000F5D40020F8BD0120F8BD006850308900D2
:1059F0000818006870470068503089000818026075
:105A00007047000010B50B46006841680D48014022
:105A1000080CD870CC04E40E5C708C06A40E9C704C
:105A20000904490F1970002A0AD103F009FDD87042
:105A3000587803F005FD5870987803F001FD9870D0
:105A4000002010BD3FFFFF0010B50B460168896ABA
:105A50005960006801680F4801408802800E187084
:105A60004C04640E5C704C06640E9C70090C40245F
:105A700021401972002A0AD103F0E2FC187058780C
:105A800003F0DEFC5870987803F0DAFC9870002080
:105A900010BD00007F7F7F0070B50446002C03D04E
:105AA000607F002802D006E0012070BD0020207732
:105AB000204600F043F8022060772168CA2048623F
:105AC000216853204862204603F050FDFF21002842
:105AD00005D02068416204206077012070BD2068F5
